:100000000C942A000C94BA030C9447000C944700FB
:100010000C9447000C9447000C9447000C94470044
:100020000C9447000C9447000C9447000C94470034
:100030000C9447000C9447000C9447000C94470024
:100040000C9447000C9447000C9447000C94470014
:100050000C94470011241FBECFE5D8E0DEBFCDBF12
:1000600010E0A0E6B0E0E4E1F0E102C005900D92FE
:10007000AC39B107D9F710E0ACE9B0E001C01D928E
:10008000AD39B107E1F70E9474030C9408080C9491
:100090000000843409F471C0853448F4823499F145
:1000A000833408F04DC0813409F083C00FC082361C
:1000B00051F1833620F4813609F07BC007C08336C6
:1000C00009F43EC0843609F074C057C0413069F469
:1000D0002AB381E090E0AC0102C0440F551F6A953D
:1000E000E2F7BA01622B6ABB08952AB381E090E07F
:1000F000AC0102C0440F551F6A95E2F7BA01609542
:1001000062236ABB0895413069F427B381E090E02F
:10011000AC0102C0440F551F6A95E2F7BA01622B89
:1001200067BB089527B381E090E0AC0102C0440FA3
:10013000551F6A95E2F7BA016095622367BB08957F
:10014000413069F424B381E090E0AC0102C0440F77
:10015000551F6A95E2F7BA01622B64BB089524B378
:1001600081E090E0AC0102C0440F551F6A95E2F7B0
:10017000BA016095622364BB0895413069F421B3EC
:1001800081E090E0AC0102C0440F551F6A95E2F790
:10019000BA01622B61BB089521B381E090E0AC010C
:1001A00002C0440F551F6A95E2F7BA0160956223B9
:1001B00061BB0895843409F471C0853448F48234F5
:1001C00099F1833408F04DC0813409F083C00FC029
:1001D000823651F1833620F4813609F07BC007C0A6
:1001E000833609F43EC0843609F074C057C04130EC
:1001F00069F42BB381E090E0AC0102C0440F551FBD
:100200006A95E2F7BA01622B6BBB08952BB381E0CC
:1002100090E0AC0102C0440F551F6A95E2F7BA01A5
:10022000609562236BBB0895413069F428B381E087
:1002300090E0AC0102C0440F551F6A95E2F7BA0185
:10024000622B68BB089528B381E090E0AC0102C046
:10025000440F551F6A95E2F7BA016095622368BBA7
:100260000895413069F425B381E090E0AC0102C00B
:10027000440F551F6A95E2F7BA01622B65BB0895DA
:1002800025B381E090E0AC0102C0440F551F6A9590
:10029000E2F7BA016095622365BB0895413069F4C5
:1002A00022B381E090E0AC0102C0440F551F6A9573
:1002B000E2F7BA01622B62BB089522B381E090E0BD
:1002C000AC0102C0440F551F6A95E2F7BA01609570
:1002D000622362BB0895843409F44EC0853440F42F
:1002E000823431F18334B0F5813409F057C00EC047
:1002F0008236F1F0833620F4813609F04FC006C013
:10030000833641F1843609F049C036C029B381E013
:1003100090E0062E02C0880F991F0A94E2F730E0A1
:100320008223932302C0959587956A95E2F70895F5
:1003300026B381E090E0062E02C0880F991F0A9430
:10034000E2F730E08223932302C0959587956A9562
:10035000E2F7089523B381E090E0062E02C0880FF3
:10036000991F0A94E2F730E08223932302C0959507
:1003700087956A95E2F7089520B381E090E0062E14
:1003800002C0880F991F0A94E2F730E0822393237A
:1003900002C0959587956A95E2F7089580E00895E3
:1003A000843409F43DC0853440F48234F9F0833458
:1003B00050F5813409F040C00CC08236B9F0833664
:1003C00018F48136C9F505C08336E9F08436A1F505
:1003D00027C02BB381E090E0AC0102C0440F551F51
:1003E0006A95E2F7BA0162276BBB089528B381E0F2
:1003F00090E0AC0102C0440F551F6A95E2F7BA01C4
:10040000622768BB089525B381E090E0AC0102C08B
:10041000440F551F6A95E2F7BA01622765BB08953C
:1004200022B381E090E0AC0102C0440F551F6A95F1
:10043000E2F7BA01622762BB08958434D9F08534AB
:1004400038F4823499F0833498F48134A1F40CC0E8
:10045000823661F0833618F4813669F405C083363C
:1004600039F0843641F406C06ABB089567BB08952D
:1004700064BB089561BB08958434D9F0853438F4A1
:10048000823499F0833498F48134A1F40CC082361C
:1004900061F0833618F4813669F405C0833639F08B
:1004A000843641F406C06BBB089568BB089565BBF4
:1004B000089562BB08958434D9F0853438F48234C9
:1004C00099F0833498F48134A9F40CC0823661F039
:1004D000833618F4813671F405C0833639F08436DA
:1004E00049F406C089B3089586B3089583B3089587
:1004F00080B3089580E00895843409F471C0853490
:1005000048F4823499F1833408F04DC0813409F005
:1005100083C00FC0823651F1833620F4813609F052
:100520007BC007C0833609F43EC0843609F074C02E
:1005300057C0413069F42BB381E090E0AC0102C0B8
:10054000440F551F6A95E2F7BA01622B6BBB089501
:100550002BB381E090E0AC0102C0440F551F6A95B7
:10056000E2F7BA01609562236BBB0895413069F4EC
:1005700028B381E090E0AC0102C0440F551F6A959A
:10058000E2F7BA01622B68BB089528B381E090E0DE
:10059000AC0102C0440F551F6A95E2F7BA0160959D
:1005A000622368BB0895413069F425B381E090E08F
:1005B000AC0102C0440F551F6A95E2F7BA01622BE5
:1005C00065BB089525B381E090E0AC0102C0440F03
:1005D000551F6A95E2F7BA016095622365BB0895DD
:1005E000413069F422B381E090E0AC0102C0440FD5
:1005F000551F6A95E2F7BA01622B62BB089522B3D8
:1006000081E090E0AC0102C0440F551F6A95E2F70B
:10061000BA016095622362BB08956F70823481F0E5
:10062000833418F48134F1F405C0833479F08434D0
:10063000C9F412C08BB3807F8BBB8BB3862B8BBB73
:1006400088B3807F88BB88B3862B88BB85B3807FC7
:1006500085BB85B3862B85BB82B3807F82BB82B38B
:10066000682B62BB08956295607F823481F0833489
:1006700018F48134F1F405C0833479F08434C9F47A
:1006800012C08BB38F708BBB8BB3862B8BBB88B3A5
:100690008F7088BB88B3862B88BB85B38F7085BB72
:1006A00085B3862B85BB82B38F7082BB82B3682BE8
:1006B00062BB089584E490E062E070E040E050E0C6
:1006C0000E94490078948BB780648BBF85B78E7F7A
:1006D00085BF85B7826085BF08950E941A040E9475
:1006E000F7040E945A0308950E946D03C0E000E6DB
:1006F00010E00F2EFFE6EF2EF0E0FF2EF02D0F2E74
:10070000FEE8CF2EF0E0DF2EF02D0F2EF0E8AF2E1A
:10071000F0E0BF2EF02DD0E080919C0080FD0BC05A
:10072000C8010E94920482E061E00E94AB04C7010C
:100730000E949204F1CF81FF0FC060E070E084E37B
:1007400093E40E94CC04C13039F70E94A104C50192
:100750000E949204CD2FE0CF60E070E0CB010E94B8
:10076000CC04CC23C9F60E94A104C6010E949204C5
:10077000C1E0D2CF1F920F920FB60F9211242F9388
:100780003F934F935F936F937F938F939F93AF9319
:10079000BF93EF93FF9386E40E94110580939C0022
:1007A000FF91EF91BF91AF919F918F917F916F9149
:1007B0005F914F913F912F910F900FBE0F901F901F
:1007C000189581E460E041E00E94DA008FE99FE043
:1007D0000197F1F700C0000081E460E040E00E9472
:1007E000DA008FE99FE00197F1F700C0000008955B
:1007F000CF93C82F682F62956F7081E40E943303F6
:1008000081E462E040E00E94DA000E94E10381E4BA
:100810006C2F0E94330381E462E040E00E94DA0022
:100820000E94E1038FEC97E00197F1F700C0000010
:10083000CF91089581E464E041E00E94490081E4A1
:1008400065E041E00E94490081E466E041E00E94E9
:10085000490081E467E041E00E94490081E462E0F0
:1008600041E00E94490081E460E041E00E944900CB
:1008700081E461E041E00E94490081E461E040E000
:100880000E94DA0082E00E94F8038FE19EE4019763
:10089000F1F700C0000088E20E94F8038FEC97E0B7
:1008A0000197F1F700C000008EE00E94F8038FEC82
:1008B00097E00197F1F700C0000081E00E94F80383
:1008C0008FE19EE40197F1F700C0000086E00E94EE
:1008D000F8038FEC97E00197F1F700C0000008954E
:1008E000CF93C82F682F62956F7081E40E94330305
:1008F00081E462E041E00E94DA000E94E10381E4C9
:100900006C2F0E94330381E462E041E00E94DA0030
:100910000E94E1038FEC97E00197F1F700C000001F
:10092000CF910895CF93DF93EC018881882331F034
:1009300021960E94700489918823D9F7DF91CF9185
:10094000089581E00E94F8038FE19EE40197F1F79A
:1009500000C000000895CF93982F9150923020F45A
:10096000613110F4662321F480E80E94F80309C085
:10097000813019F4C62FC15804C0823011F4C62F3B
:10098000C1548C2F0E94F8038FEC97E00197F1F788
:1009900000C00000CF91089520E030E044E353E42C
:1009A0000E949E0620E030E040E85FE30E943A06A5
:1009B0000E94B405089582E464E041E00E94490089
:1009C00082E465E041E00E94490082E467E041E0A2
:1009D0000E9449006C9A6898699870986E9A6B9812
:1009E0006A9882E464E041E00E94DA0008956C981D
:1009F0006E9A82E466E041E00E9449000895CF9338
:100A0000C82F82E464E040E00E94DA00CFB9779B0F
:100A1000FECF82E464E041E00E94DA008FB1CF9122
:100A200008958FB9779BFECF8FB10895CF93DF9351
:100A3000EC018881882379F021960E94FF048FEFD2
:100A400092E5A7E081509040A040E1F700C000008F
:100A50008991882391F7DF91CF91089583B7877F9C
:100A600083BF83B78F7B83BF83B7816083BF83B727
:100A70008D7F83BF83B7846083BF789489B781609B
:100A800089BF88EC82BF089583B7886083BF83B72E
:100A90008F7B83BF83B7816083BF83B78D7F83BF25
:100AA00083B7846083BF789489B7826089BF8AE006
:100AB0008CBF0895BB9A83B7886083BF83B78F7B51
:100AC00083BF83B7816083BF83B78D7F83BF83B7C5
:100AD000846083BF8CE98CBF83B7806183BF089536
:100AE000BB9A83B7886083BF83B7806483BF83B7B3
:100AF000816083BF83B78D7F83BF83B7846083BFEB
:100B000080EC8CBF83B7806283BF0895BB9A83B7A4
:100B1000877F83BF83B7806483BF83B7816083BFD0
:100B200083B78D7F83BF83B7846083BF80EC8CBF26
:100B300083B7806283BF089585B5877F85BD85B5FE
:100B40008F7B85BD85B5846085BD85B58D7F85BD71
:100B500085B5816085BD82B5886082BD789489B78E
:100B6000806489BF14BC08958D9A2FB522602FBD73
:100B70002EB520612EBD2EB528602EBD2EB521606C
:100B80002EBD20E030E04AEF55E40E9483070E942A
:100B90000607DC01CB019BBD8ABD8FE19EE497BDBA
:100BA00086BD8FB580688FBD08958C9A2FB5226061
:100BB0002FBD2EB520612EBD2EB528602EBD2EB5C1
:100BC00021602EBD20E030E04AE754E40E94830714
:100BD0000E940607DC01CB0199BD88BD8FE19EE430
:100BE00097BD86BD8FB580628FBD0895DC01CB01B6
:100BF000880F991FAA1FBB1F880F991FAA1FBB1F11
:100C00009C01AD01220F331F441F551F220F331FBC
:100C1000441F551F60E072E18AE790E00E94E607FA
:100C20002150304030BD29B9539A549A86E880BD8E
:100C300008955D9BFECF8CB908955F9BFECF8CB16C
:100C40000895CF93DF93EC018881882379F0219672
:100C50000E9419068FEF90E7A2E081509040A040DB
:100C6000E1F700C000008991882391F7DF91CF91CF
:100C700008955058BB27AA270ED00BC1FCD030F0E6
:100C800001D120F031F49F3F11F41EF4F1C00EF4B5
:100C9000E095E7FBE7C0E92F0DD180F3BA176207B3
:100CA00073078407950718F071F49EF525C10EF4BB
:100CB000E0950B2EBA2FA02D0B01B90190010C016C
:100CC000CA01A0011124FF27591B99F0593F50F484
:100CD000503E68F11A16F040A22F232F342F4427DC
:100CE000585FF3CF469537952795A795F0405395D4
:100CF000C9F77EF41F16BA0B620B730B840BBAF0A4
:100D00009150A1F0FF0FBB1F661F771F881FC2F70E
:100D10000EC0BA0F621F731F841F48F48795779522
:100D20006795B795F7959E3F08F0B3CF9395880FD9
:100D300008F09927EE0F9795879508950CD0A9C0D4
:100D4000A1D040F098D030F021F45F3F19F08AC074
:100D50005111D3C08DC0AED098F39923C9F3552358
:100D6000B1F3951B550BBB27AA276217730784079E
:100D700038F09F5F5F4F220F331F441FAA1FA9F354
:100D800033D00E2E3AF0E0E830D091505040E69546
:100D9000001CCAF729D0FE2F27D0660F771F881FA7
:100DA000BB1F261737074807AB07B0E809F0BB0B96
:100DB000802DBF01FF2793585F4F2AF09E3F5105BA
:100DC00068F050C09AC05F3FECF3983EDCF3869524
:100DD00077956795B795F7959F5FC9F7880F911D30
:100DE0009695879597F90895E1E0660F771F881F1C
:100DF000BB1F621773078407BA0720F0621B730BCF
:100E0000840BBA0BEE1F88F7E09508955BD088F04D
:100E10009F5790F0B92F9927B751A0F0D1F0660FE6
:100E2000771F881F991F1AF0BA95C9F712C0B13001
:100E300081F062D0B1E008955FC0672F782F8827D6
:100E4000B85F39F0B93FCCF3869577956795B39540
:100E5000D9F73EF490958095709561957F4F8F4FAF
:100E60009F4F089597F99F6780E870E060E00895CC
:100E70009FEF80EC089500240A94161617061806B2
:100E80000906089500240A9412161306140605068E
:100E90000895092E0394000C11F4882352F0BB0F1F
:100EA00040F4BF2B11F460FF04C06F5F7F4F8F4F82
:100EB0009F4F089557FD9058440F551F59F05F3FBD
:100EC00071F04795880F97FB991F61F09F3F79F06C
:100ED00087950895121613061406551FF2CF4695EE
:100EE000F1DF08C0161617061806991FF1CF869570
:100EF0007105610508940895E894BB276627772754
:100F0000CB0197F908950BD0C4CFB5DF28F0BADF35
:100F100018F0952309F0A6CFABCF1124EECFCADF8E
:100F2000A0F3959FD1F3950F50E0551F629FF001FC
:100F3000729FBB27F00DB11D639FAA27F00DB11D55
:100F4000AA1F649F6627B00DA11D661F829F2227DE
:100F5000B00DA11D621F739FB00DA11D621F839F65
:100F6000A00D611D221F749F3327A00D611D231F3B
:100F7000849F600D211D822F762F6A2F11249F5789
:100F800050408AF0E1F088234AF0EE0FFF1FBB1FAC
:100F9000661F771F881F91505040A9F79E3F51054B
:100FA00070F060CFAACF5F3FECF3983EDCF38695FC
:100FB00077956795B795F795E7959F5FC1F7FE2BF6
:100FC000880F911D9695879597F90895A1E21A2E9D
:100FD000AA1BBB1BFD010DC0AA1FBB1FEE1FFF1FDD
:100FE000A217B307E407F50720F0A21BB30BE40B2D
:100FF000F50B661F771F881F991F1A9469F7609574
:101000007095809590959B01AC01BD01CF0108952D
:04101000F894FFCF82
:10101400536574204775657374207061737300465B
:10102400726F6D20436F6E74726F6C2073797300EE
:10103400476172616765206F70656E656400476122
:0C1044007261676520436C6F7365640087
:00000001FF
