S0130000446973706C61795F7379732E737265637D
S11300000C942A000C9447000C9447000C940306AB
S11300100C9447000C94EC050C9447000C94470096
S11300200C9447000C9447000C9447000C94470030
S11300300C9447000C9447000C9447000C94470020
S11300400C9447000C9447000C9447000C94470010
S11300500C94470011241FBECFE5D8E0DEBFCDBF0E
S113006010E0A0E6B0E0EAECF2E102C005900D92E7
S1130070A43AB107D9F710E0A4EAB0E001C01D9298
S1130080AD3AB107E1F70E94B1030C9463090C94F3
S1130090000040E00E94530008950E9475010895F5
S11300A00E9486020895843409F471C0853448F4AA
S11300B0823499F1833408F04DC0813409F083C04F
S11300C00FC0823651F1833620F4813609F07BC0AB
S11300D007C0833609F43EC0843609F074C057C0A3
S11300E0413069F42AB381E090E0AC0102C0440FCE
S11300F0551F6A95E2F7BA01622B6ABB08952AB3C9
S113010081E090E0AC0102C0440F551F6A95E2F70C
S1130110BA01609562236ABB0895413069F427B33C
S113012081E090E0AC0102C0440F551F6A95E2F7EC
S1130130BA01622B67BB089527B381E090E0AC015C
S113014002C0440F551F6A95E2F7BA016095622315
S113015067BB0895413069F424B381E090E0AC01B9
S113016002C0440F551F6A95E2F7BA01622B64BBC3
S1130170089524B381E090E0AC0102C0440F551F00
S11301806A95E2F7BA016095622364BB0895413031
S113019069F421B381E090E0AC0102C0440F551F23
S11301A06A95E2F7BA01622B61BB089521B381E03D
S11301B090E0AC0102C0440F551F6A95E2F7BA0102
S11301C06095622361BB0895843409F471C0853459
S11301D048F4823499F1833408F04DC0813409F035
S11301E083C00FC0823651F1833620F4813609F082
S11301F07BC007C0833609F43EC0843609F074C05E
S113020057C0413069F42BB381E090E0AC0102C0E7
S1130210440F551F6A95E2F7BA01622B6BBB089530
S11302202BB381E090E0AC0102C0440F551F6A95E6
S1130230E2F7BA01609562236BBB0895413069F41B
S113024028B381E090E0AC0102C0440F551F6A95C9
S1130250E2F7BA01622B68BB089528B381E090E00D
S1130260AC0102C0440F551F6A95E2F7BA016095CC
S1130270622368BB0895413069F425B381E090E0BE
S1130280AC0102C0440F551F6A95E2F7BA01622B14
S113029065BB089525B381E090E0AC0102C0440F32
S11302A0551F6A95E2F7BA016095622365BB08950C
S11302B0413069F422B381E090E0AC0102C0440F04
S11302C0551F6A95E2F7BA01622B62BB089522B307
S11302D081E090E0AC0102C0440F551F6A95E2F73B
S11302E0BA016095622362BB0895843409F44EC058
S11302F0853440F4823431F18334B0F5813409F02B
S113030057C00EC08236F1F0833620F4813609F0EE
S11303104FC006C0833641F1843609F049C036C067
S113032029B381E090E0062E02C0880F991F0A9439
S1130330E2F730E08223932302C0959587956A956E
S1130340E2F7089526B381E090E0062E02C0880FFC
S1130350991F0A94E2F730E08223932302C0959513
S113036087956A95E2F7089523B381E090E0062E1D
S113037002C0880F991F0A94E2F730E08223932386
S113038002C0959587956A95E2F7089520B381E0B8
S113039090E0062E02C0880F991F0A94E2F730E01D
S11303A08223932302C0959587956A95E2F7089571
S11303B080E00895843409F43DC0853440F48234E7
S11303C0F9F0833450F5813409F040C00CC0823612
S11303D0B9F0833618F48136C9F505C08336E9F0DF
S11303E08436A1F527C02BB381E090E0AC0102C0B4
S11303F0440F551F6A95E2F7BA0162276BBB089553
S113040028B381E090E0AC0102C0440F551F6A9507
S1130410E2F7BA01622768BB089525B381E090E052
S1130420AC0102C0440F551F6A95E2F7BA01622776
S113043065BB089522B381E090E0AC0102C0440F93
S1130440551F6A95E2F7BA01622762BB08958434A6
S1130450D9F0853438F4823499F0833498F48134B3
S1130460A1F40CC0823661F0833618F4813669F445
S113047005C0833639F0843641F406C06ABB08955A
S113048067BB089564BB089561BB08958434D9F0B3
S1130490853438F4823499F0833498F48134A1F4A7
S11304A00CC0823661F0833618F4813669F405C0D5
S11304B0833639F0843641F406C06BBB089568BBBB
S11304C0089565BB089562BB08958434D9F08534DA
S11304D038F4823499F0833498F48134A9F40CC04C
S11304E0823661F0833618F4813671F405C08336A0
S11304F039F0843649F406C089B3089586B3089563
S113050083B3089580B3089580E00895843409F492
S113051071C0853448F4823499F1833408F04DC0B5
S1130520813409F083C00FC0823651F1833620F440
S1130530813609F07BC007C0833609F43EC0843697
S113054009F074C057C0413069F42BB381E090E0E6
S1130550AC0102C0440F551F6A95E2F7BA01622B41
S11305606BBB08952BB381E090E0AC0102C0440F53
S1130570551F6A95E2F7BA01609562236BBB089533
S1130580413069F428B381E090E0AC0102C0440F2B
S1130590551F6A95E2F7BA01622B68BB089528B328
S11305A081E090E0AC0102C0440F551F6A95E2F768
S11305B0BA016095622368BB0895413069F425B39C
S11305C081E090E0AC0102C0440F551F6A95E2F748
S11305D0BA01622B65BB089525B381E090E0AC01BC
S11305E002C0440F551F6A95E2F7BA016095622371
S11305F065BB0895413069F422B381E090E0AC0119
S113060002C0440F551F6A95E2F7BA01622B62BB20
S1130610089522B381E090E0AC0102C0440F551F5D
S11306206A95E2F7BA016095622362BB08956F7020
S1130630823481F0833418F48134F1F405C08334B6
S113064079F08434C9F412C08BB3807F8BBB8BB335
S1130650862B8BBB88B3807F88BB88B3862B88BBF3
S113066085B3807F85BB85B3862B85BB82B3807FB2
S113067082BB82B3682B62BB08956295607F82342B
S113068081F0833418F48134F1F405C0833479F0B3
S11306908434C9F412C08BB38F708BBB8BB3862B9D
S11306A08BBB88B38F7088BB88B3862B88BB85B31C
S11306B08F7085BB85B3862B85BB82B38F7082BB5D
S11306C082B3682B62BB089578948BB780628BBF2A
S11306D085B78E7F85BF85B7826085BF08950E94E8
S11306E064030E94D20881E40E94EB070E942D0853
S11306F00E94390760E875E280E090E00E94EA0811
S113070083E490E060E070E041E050E00E94530038
S113071083E490E061E070E041E050E00E94530027
S113072083E490E062E070E041E050E00E94530016
S113073083E490E063E070E041E050E00E94530005
S113074083E490E064E070E041E050E00E945300F4
S113075083E490E065E070E041E050E00E945300E3
S113076008950E946F038FEF94E6A4E081509040B7
S1130770A040E1F700C000001092AA001092A90066
S11307801092AC001092AB001092A8001092A70037
S113079080E690E00E94B10782E061E00E94CA070F
S11307A081E790E00E94B107CAE0D0E005E810E0DC
S11307B00F2EF2E8EF2EF0E0FF2EF02D83E490E010
S11307C060E070E041E050E00E94E40083E490E0E7
S11307D061E070E041E050E00E94E40083E490E0D6
S11307E062E070E041E050E00E94E40083E490E0C5
S11307F063E070E041E050E00E94E40083E490E0B4
S113080064E070E041E050E00E94E40083E490E0A2
S113081065E070E040E050E00E94E4008091AB00AD
S11308209091AC00BE010E942D09682F81E40E94C2
S1130830EF07AFE0B7E21197F1F700C0000083E4DF
S113084090E060E070E041E050E00E94E40083E466
S113085090E061E070E041E050E00E94E40083E455
S113086090E062E070E041E050E00E94E40083E444
S113087090E063E070E041E050E00E94E40083E433
S113088090E064E070E040E050E00E94E40083E423
S113089090E065E070E041E050E00E94E400809167
S11308A0AB009091AC00BE010E942D0981E40E942E
S11308B0EF078FE097E20197F1F700C0000083E4AF
S11308C090E060E070E041E050E00E94E40083E4E6
S11308D090E061E070E041E050E00E94E40083E4D5
S11308E090E062E070E041E050E00E94E40083E4C4
S11308F090E063E070E040E050E00E94E40083E4B4
S113090090E064E070E041E050E00E94E40083E4A1
S113091090E065E070E041E050E00E94E4008091E6
S1130920A9009091AA00BE010E942D09682F81E4BC
S11309300E94EF07AFE0B7E21197F1F700C00000A3
S113094083E490E060E070E041E050E00E94E40065
S113095083E490E061E070E041E050E00E94E40054
S113096083E490E062E070E040E050E00E94E40044
S113097083E490E063E070E041E050E00E94E40032
S113098083E490E064E070E041E050E00E94E40021
S113099083E490E065E070E041E050E00E94E40010
S11309A08091A9009091AA00BE010E942D0981E4C2
S11309B00E94EF078FE097E20197F1F700C0000073
S11309C083E490E060E070E041E050E00E94E400E5
S11309D083E490E061E070E040E050E00E94E400D5
S11309E083E490E062E070E041E050E00E94E400C3
S11309F083E490E063E070E041E050E00E94E400B2
S1130A0083E490E064E070E041E050E00E94E400A0
S1130A1083E490E065E070E041E050E00E94E4008F
S1130A208091A7009091A800BE010E942D09682F13
S1130A3081E40E94EF07AFE0B7E21197F1F700C03D
S1130A40000083E490E060E070E040E050E00E9449
S1130A50E40083E490E061E070E041E050E00E9453
S1130A60E40083E490E062E070E041E050E00E9442
S1130A70E40083E490E063E070E041E050E00E9431
S1130A80E40083E490E064E070E041E050E00E9420
S1130A90E40083E490E065E070E041E050E00E940F
S1130AA0E4008091A7009091A800BE010E942D0946
S1130AB081E40E94EF078FE097E20197F1F700C00D
S1130AC000008091AB009091AC008C33910568F0EC
S1130AD08091A9009091AA0001969093AA00809316
S1130AE0A9001092AC001092AB008091A9009091E3
S1130AF0AA008C33910568F08091A7009091A8001A
S1130B0001969093A8008093A7001092AA001092D7
S1130B10A9008091A7009091A8008831910520F048
S1130B201092A8001092A7009091A6008091A400B2
S1130B30981709F443CE8091A6008093A400809175
S1130B40A40080FF08C081E066E00E94CA07C701D4
S1130B500E94B10707C081E066E00E94CA07C8018D
S1130B600E94B1078091A40081FF08C081E06FE07A
S1130B700E94CA07C7010E94B10707C081E06FE065
S1130B800E94CA07C8010E94B1078091A40082FF95
S1130B9008C082E066E00E94CA07C7010E94B1074C
S1130BA007C082E066E00E94CA07C8010E94B1073C
S1130BB08091A40083FF08C082E06FE00E94CA070E
S1130BC0C7010E94B107FACD82E06FE00E94CA0714
S1130BD0C8010E94B107F2CD1F920F920FB60F9277
S1130BE011248F939F938091AB009091AC00019658
S1130BF09093AC008093AB009F918F910F900FBEA8
S1130C000F901F9018951F920F920FB60F921124F8
S1130C102F933F934F935F936F937F938F939F9300
S1130C20AF93BF93EF93FF930E9411098093A600A3
S1130C3081E40E9447088093A5008091A500882341
S1130C40B4F48091A5008F778093A5002091A5002E
S1130C508091AB009091AC0030E02817390739F04F
S1130C608091A50090E09093AC008093AB008091BC
S1130C70A50086FF16C08091A5008F7B8093A500F8
S1130C802091A5008091A9009091AA0030E0281736
S1130C90390739F08091A50090E09093AA008093E1
S1130CA0A9008091A50085FF16C08091A5008F7DC5
S1130CB08093A5002091A5008091A7009091A800A1
S1130CC030E02817390739F08091A50090E090931F
S1130CD0A8008093A700FF91EF91BF91AF919F91DE
S1130CE08F917F916F915F914F913F912F910F90D1
S1130CF00FBE0F901F90189584E460E041E00E94BD
S1130D00530084E461E041E00E94530084E462E023
S1130D1041E00E94530084E463E041E00E945300F8
S1130D2084E464E040E00E94530084E465E040E031
S1130D300E94530084E466E040E00E94530084E48F
S1130D4067E040E00E94530084E464E041E00E94D4
S1130D50860284E465E041E00E94860284E466E061
S1130D6041E00E94860284E467E041E00E9486023A
S1130D7008950F931F93CF93DF93CDB7DEB760979A
S1130D800FB6F894DEBF0FBECDBFDE011196E9E8C1
S1130D90F0E080E101900D928150E1F700E084E4FD
S1130DA06FEF0E94170384E4602F40E00E94E40088
S1130DB010E0612F6C5F84E40E944D00882361F48D
S1130DC0E02FF0E0EE0FFF1FEE0FFF1FE10FF11D0C
S1130DD0EC0FFD1F818104C01F5F143051F70BC05D
S1130DE060960FB6F894DEBF0FBECDBFDF91CF91F2
S1130DF01F910F9108950F5F043089F68FEFF0CFA4
S1130E0082E460E041E00E94E4008FE99FE0019702
S1130E10F1F700C0000082E460E040E00E94E400DA
S1130E208FE99FE00197F1F700C000000895CF9388
S1130E30C82F682F62956F7084E40E943D0382E49A
S1130E4063E040E00E94E4000E94000784E46C2F09
S1130E500E943D0382E463E040E00E94E4000E94BB
S1130E6000078FEC97E00197F1F700C00000CF91E5
S1130E70089584E464E041E00E94530084E465E062
S1130E8041E00E94530084E466E041E00E94530084
S1130E9084E467E041E00E94530082E463E041E0BF
S1130EA00E94530082E460E041E00E94530082E427
S1130EB061E041E00E94530082E461E040E00E946E
S1130EC0E40082E00E9417078FE19EE40197F1F7A6
S1130ED000C0000088E20E9417078FEC97E001979A
S1130EE0F1F700C000008EE00E9417078FEC97E036
S1130EF00197F1F700C0000081E00E9417078FE11D
S1130F009EE40197F1F700C0000086E00E941707F5
S1130F108FEC97E00197F1F700C000000895CF939C
S1130F20C82F682F62956F7084E40E943D0382E4A9
S1130F3063E041E00E94E4000E94000784E46C2F17
S1130F400E943D0382E463E041E00E94E4000E94C9
S1130F5000078FEC97E00197F1F700C00000CF91F4
S1130F600895CF93DF93EC018881882331F0219693
S1130F700E948F0789918823D9F7DF91CF91089533
S1130F8081E00E9417078FE19EE40197F1F700C00A
S1130F9000000895CF93982F9150923020F461313E
S1130FA010F4662321F480E80E94170709C08130F9
S1130FB019F4C62FC15804C0823011F4C62FC1548D
S1130FC08C2F0E9417078FEC97E00197F1F700C070
S1130FD00000CF9108956FEF0E9427020895CF93E8
S1130FE0DF93CDB7DEB72A970FB6F894DEBF0FBEF6
S1130FF0CDBFDE011196E9E9F0E09AE001900D928F
S11310009150E1F7FE01E60FF11D61810E94460255
S11310102A960FB6F894DEBF0FBECDBFDF91CF91F5
S1131020089582E464E041E00E94530082E465E0B4
S113103041E00E94530082E467E041E00E945300D3
S11310406C9A6898699870986E9A6B986A9882E41A
S113105064E041E00E94E40008956C986E9A82E492
S113106066E041E00E9453000895CF93C82F82E4C4
S113107064E040E00E94E400CFB9779BFECF82E4B5
S113108064E041E00E94E4008FB1CF9108958FB9EC
S1131090779BFECF8FB10895CF93DF93EC018881C6
S11310A0882379F021960E9435088FEF92E5A7E016
S11310B081509040A040E1F700C00000899188234E
S11310C091F7DF91CF91089583B7877F83BF83B76B
S11310D08F7B83BF83B7816083BF83B78D7F83BFDB
S11310E083B7846083BF789489B7816089BF88ECB3
S11310F082BF089583B7886083BF83B78F7B83BF24
S113110083B7816083BF83B78D7F83BF83B78460D8
S113111083BF789489B7826089BF8AE08CBF0895C1
S1131120BB9A83B7886083BF83B78F7B83BF83B742
S1131130816083BF83B78D7F83BF83B7846083BFA0
S11311408CE98CBF83B7806183BF0895BB9A83B752
S1131150886083BF83B7806483BF83B7816083BFA4
S113116083B78D7F83BF83B7846083BF80EC8CBFDC
S113117083B7806283BF0895BB9A83B7877F83BF99
S113118083B7806483BF83B7816083BF83B78D7F58
S113119083BF83B7846083BF80EC8CBF83B78062D6
S11311A083BF089585B5877F85BD85B58F7B85BD54
S11311B085B5846085BD85B58D7F85BD85B5816028
S11311C085BD82B5886082BD789489B7806489BF03
S11311D014BC0895DC01CB01880F991FAA1FBB1F03
S11311E0880F991FAA1FBB1F9C01AD01220F331F3B
S11311F0441F551F220F331F441F551F60E072E127
S11312008AE790E00E9441092150304030BD29B95D
S1131210539A549A86E880BD08955D9BFECF8CB99D
S113122008955F9BFECF8CB10895CF93DF93EC01BB
S11312308881882379F021960E940D098FEF90E729
S1131240A2E081509040A040E1F700C000008991E5
S1131250882391F7DF91CF910895AA1BBB1B51E11D
S113126007C0AA1FBB1FA617B70710F0A61BB70B12
S1131270881F991F5A95A9F780959095BC01CD01B7
S11312800895A1E21A2EAA1BBB1BFD010DC0AA1FC3
S1131290BB1FEE1FFF1FA217B307E407F50720F0DB
S11312A0A21BB30BE40BF50B661F771F881F991F56
S11312B01A9469F760957095809590959B01AC019F
S10D12C0BD01CF010895F894FFCF9B
S11312CA4C313A204F464620204C323A204F46466B
S11312DA004C333A204F4646202041433A204F4699
S11312EA46004E2000464600443738392F343536F6
S11312FA2A3132332D41303D2B3F065B4F666D7DDB
S107130A477F6F00A6
S9030000FC
