S0100000526F6F6D5F7379732E73726563B9
S11300000C942A000C94E0040C9447000C944700D0
S11300100C9447000C9447000C9447000C94470040
S11300200C9447000C9447000C9447000C94470030
S11300300C9447000C9447000C9447000C94470020
S11300400C9447000C9447000C9447000C94470010
S11300500C94470011241FBECFE5D8E0DEBFCDBF0E
S113006010E0A0E6B0E0E2EFFCE002C005900D92E3
S1130070A236B107D9F710E0A2E6B0E001C01D92A4
S1130080A336B107E1F70E9471040C9477060C942F
S113009000003E9A3F9A379A329A319A0895369AD6
S11300A0349BFECF349A84B190E045B1342F20E0E4
S11300B0822B932B0895843409F471C0853448F459
S11300C0823499F1833408F04DC0813409F083C03F
S11300D00FC0823651F1833620F4813609F07BC09B
S11300E007C0833609F43EC0843609F074C057C093
S11300F0413069F42AB381E090E0AC0102C0440FBE
S1130100551F6A95E2F7BA01622B6ABB08952AB3B8
S113011081E090E0AC0102C0440F551F6A95E2F7FC
S1130120BA01609562236ABB0895413069F427B32C
S113013081E090E0AC0102C0440F551F6A95E2F7DC
S1130140BA01622B67BB089527B381E090E0AC014C
S113015002C0440F551F6A95E2F7BA016095622305
S113016067BB0895413069F424B381E090E0AC01A9
S113017002C0440F551F6A95E2F7BA01622B64BBB3
S1130180089524B381E090E0AC0102C0440F551FF0
S11301906A95E2F7BA016095622364BB0895413021
S11301A069F421B381E090E0AC0102C0440F551F13
S11301B06A95E2F7BA01622B61BB089521B381E02D
S11301C090E0AC0102C0440F551F6A95E2F7BA01F2
S11301D06095622361BB0895843409F471C0853449
S11301E048F4823499F1833408F04DC0813409F025
S11301F083C00FC0823651F1833620F4813609F072
S11302007BC007C0833609F43EC0843609F074C04D
S113021057C0413069F42BB381E090E0AC0102C0D7
S1130220440F551F6A95E2F7BA01622B6BBB089520
S11302302BB381E090E0AC0102C0440F551F6A95D6
S1130240E2F7BA01609562236BBB0895413069F40B
S113025028B381E090E0AC0102C0440F551F6A95B9
S1130260E2F7BA01622B68BB089528B381E090E0FD
S1130270AC0102C0440F551F6A95E2F7BA016095BC
S1130280622368BB0895413069F425B381E090E0AE
S1130290AC0102C0440F551F6A95E2F7BA01622B04
S11302A065BB089525B381E090E0AC0102C0440F22
S11302B0551F6A95E2F7BA016095622365BB0895FC
S11302C0413069F422B381E090E0AC0102C0440FF4
S11302D0551F6A95E2F7BA01622B62BB089522B3F7
S11302E081E090E0AC0102C0440F551F6A95E2F72B
S11302F0BA016095622362BB0895843409F44EC048
S1130300853440F4823431F18334B0F5813409F01A
S113031057C00EC08236F1F0833620F4813609F0DE
S11303204FC006C0833641F1843609F049C036C057
S113033029B381E090E0062E02C0880F991F0A9429
S1130340E2F730E08223932302C0959587956A955E
S1130350E2F7089526B381E090E0062E02C0880FEC
S1130360991F0A94E2F730E08223932302C0959503
S113037087956A95E2F7089523B381E090E0062E0D
S113038002C0880F991F0A94E2F730E08223932376
S113039002C0959587956A95E2F7089520B381E0A8
S11303A090E0062E02C0880F991F0A94E2F730E00D
S11303B08223932302C0959587956A95E2F7089561
S11303C080E00895843409F43DC0853440F48234D7
S11303D0F9F0833450F5813409F040C00CC0823602
S11303E0B9F0833618F48136C9F505C08336E9F0CF
S11303F08436A1F527C02BB381E090E0AC0102C0A4
S1130400440F551F6A95E2F7BA0162276BBB089542
S113041028B381E090E0AC0102C0440F551F6A95F7
S1130420E2F7BA01622768BB089525B381E090E042
S1130430AC0102C0440F551F6A95E2F7BA01622766
S113044065BB089522B381E090E0AC0102C0440F83
S1130450551F6A95E2F7BA01622762BB0895843496
S1130460D9F0853438F4823499F0833498F48134A3
S1130470A1F40CC0823661F0833618F4813669F435
S113048005C0833639F0843641F406C06ABB08954A
S113049067BB089564BB089561BB08958434D9F0A3
S11304A0853438F4823499F0833498F48134A1F497
S11304B00CC0823661F0833618F4813669F405C0C5
S11304C0833639F0843641F406C06BBB089568BBAB
S11304D0089565BB089562BB08958434D9F08534CA
S11304E038F4823499F0833498F48134A9F40CC03C
S11304F0823661F0833618F4813671F405C0833690
S113050039F0843649F406C089B3089586B3089552
S113051083B3089580B3089580E00895843409F482
S113052071C0853448F4823499F1833408F04DC0A5
S1130530813409F083C00FC0823651F1833620F430
S1130540813609F07BC007C0833609F43EC0843687
S113055009F074C057C0413069F42BB381E090E0D6
S1130560AC0102C0440F551F6A95E2F7BA01622B31
S11305706BBB08952BB381E090E0AC0102C0440F43
S1130580551F6A95E2F7BA01609562236BBB089523
S1130590413069F428B381E090E0AC0102C0440F1B
S11305A0551F6A95E2F7BA01622B68BB089528B318
S11305B081E090E0AC0102C0440F551F6A95E2F758
S11305C0BA016095622368BB0895413069F425B38C
S11305D081E090E0AC0102C0440F551F6A95E2F738
S11305E0BA01622B65BB089525B381E090E0AC01AC
S11305F002C0440F551F6A95E2F7BA016095622361
S113060065BB0895413069F422B381E090E0AC0108
S113061002C0440F551F6A95E2F7BA01622B62BB10
S1130620089522B381E090E0AC0102C0440F551F4D
S11306306A95E2F7BA016095622362BB08956F7010
S1130640823481F0833418F48134F1F405C08334A6
S113065079F08434C9F412C08BB3807F8BBB8BB325
S1130660862B8BBB88B3807F88BB88B3862B88BBE3
S113067085B3807F85BB85B3862B85BB82B3807FA2
S113068082BB82B3682B62BB08956295607F82341B
S113069081F0833418F48134F1F405C0833479F0A3
S11306A08434C9F412C08BB38F708BBB8BB3862B8D
S11306B08BBB88B38F7088BB88B3862B88BB85B30C
S11306C08F7085BB85B3862B85BB82B38F7082BB4D
S11306D082B3682B62BB089582E460E041E00E942B
S11306E0EC008FE99FE00197F1F700C0000082E47D
S11306F060E040E00E94EC008FE99FE00197F1F791
S113070000C000000895CF93C82F682F62956F70C2
S113071081E40E94450382E462E040E00E94EC0030
S11307200E946C0381E46C2F0E94450382E462E022
S113073040E00E94EC000E946C038FEC97E001976C
S1130740F1F700C00000CF91089581E464E041E036
S11307500E945B0081E465E041E00E945B0081E46B
S113076066E041E00E945B0081E467E041E00E94B2
S11307705B0082E462E041E00E945B0082E460E0AE
S113078041E00E945B0082E461E041E00E945B0082
S113079082E461E040E00E94EC0082E00E94830376
S11307A08FE19EE40197F1F700C0000088E20E9407
S11307B083038FEC97E00197F1F700C000008EE00F
S11307C00E9483038FEC97E00197F1F700C00000CB
S11307D081E00E9483038FE19EE40197F1F700C05A
S11307E0000086E00E9483038FEC97E00197F1F705
S11307F000C000000895CF93C82F682F62956F70D2
S113080081E40E94450382E462E041E00E94EC003E
S11308100E946C0381E46C2F0E94450382E462E031
S113082041E00E94EC000E946C038FEC97E001977A
S1130830F1F700C00000CF910895CF93DF93EC014E
S11308408881882331F021960E94FB0389918823B3
S1130850D9F7DF91CF91089581E00E9483038FE15E
S11308609EE40197F1F700C000000895CF93982FFC
S11308709150923020F4613110F4662321F480E821
S11308800E94830309C0813019F4C62FC15804C0E3
S1130890823011F4C62FC1548C2F0E9483038FEC35
S11308A097E00197F1F700C00000CF91089541E06F
S11308B00E945B00089541E00E94EC00089540E02E
S11308C00E94EC0008950E94E201089578948BB789
S11308D080648BBF85B78E7F85BF85B7826085BFF7
S11308E008950E9423050E9466040E94490083E43F
S11308F060E00E94570483E461E00E94570483E4AB
S113090062E00E94570483E463E00E9457040E945B
S11309104F00BC0180E090E00E94860520E030E0BA
S113092040E85EE30E94EC050E945A056093600073
S11309308091620080FF05C083E460E00E945B0454
S113094004C083E460E00E945F048091620081FF40
S113095005C083E461E00E945B0404C083E461E0B9
S11309600E945F048091620082FF05C083E462E01C
S11309700E945B0404C083E462E00E945F048091EF
S1130980620083FF18C02091600030E082958F7070
S113099090E04296821793072CF483E463E00E946C
S11309A05B04B5CF281739070CF0B1CF83E463E0BB
S11309B00E945F04ACCF83E463E00E945F04A7CF8E
S11309C01F920F920FB60F9211242F933F934F93C0
S11309D05F936F937F938F939F93AF93BF93EF93A3
S11309E0FF938FE00E943D0580936200FF91EF9199
S11309F0BF91AF919F918F917F916F915F914F9133
S1130A003F912F910F900FBE0F901F90189582E485
S1130A1064E041E00E945B0082E465E041E00E9402
S1130A205B0082E467E041E00E945B006C9A689896
S1130A30699870986E9A6B986A9882E464E041E0D1
S1130A400E94EC0008956C986E9A82E466E041E09E
S1130A500E945B000895CF93C82F82E464E040E0D5
S1130A600E94EC00CFB9779BFECF82E464E041E0C2
S1130A700E94EC008FB1CF9108958FB9779BFECF80
S1130A808FB10895CF93DF93EC018881882379F0A7
S1130A9021960E942B058FEF92E5A7E081509040AC
S1130AA0A040E1F700C000008991882391F7DF910D
S1130AB0CF91089570D088F09F5790F0B92F99275F
S1130AC0B751A0F0D1F0660F771F881F991F1AF055
S1130AD0BA95C9F712C0B13081F077D0B1E008956A
S1130AE074C0672F782F8827B85F39F0B93FCCF3EB
S1130AF0869577956795B395D9F73EF4909580954B
S1130B00709561957F4F8F4F9F4F0895E89409C06A
S1130B1097FB3EF490958095709561957F4F8F4F2C
S1130B209F4F9923A9F0F92F96E9BB279395F69542
S1130B30879577956795B795F111F8CFFAF4BB0FC0
S1130B4011F460FF1BC06F5F7F4F8F4F9F4F16C024
S1130B50882311F096E911C0772321F09EE8872FAE
S1130B60762F05C0662371F096E8862F70E060E06A
S1130B702AF09A95660F771F881FDAF7880F9695E3
S1130B80879597F9089557FD9058440F551F59F0CC
S1130B905F3F71F04795880F97FB991F61F09F3F66
S1130BA079F087950895121613061406551FF2CF8F
S1130BB04695F1DF08C0161617061806991FF1CFDF
S1130BC086957105610508940895E894BB27662706
S1130BD07727CB0197F908950BD078C069D028F016
S1130BE06ED018F0952309F05AC05FC01124EECFDF
S1130BF0CADFA0F3959FD1F3950F50E0551F629F74
S1130C00F001729FBB27F00DB11D639FAA27F00D61
S1130C10B11DAA1F649F6627B00DA11D661F829F88
S1130C202227B00DA11D621F739FB00DA11D621F6D
S1130C30839FA00D611D221F749F3327A00D611D8A
S1130C40231F849F600D211D822F762F6A2F11246C
S1130C509F5750408AF0E1F088234AF0EE0FFF1FBF
S1130C60BB1F661F771F881F91505040A9F79E3FF6
S1130C70510570F014C0AACF5F3FECF3983EDCF34B
S1130C80869577956795B795F795E7959F5FC1F733
S1130C90FE2B880F911D9695879597F9089597F9DE
S1130CA09F6780E870E060E008959FEF80EC08950E
S1130CB000240A9416161706180609060895002437
S1130CC00A9412161306140605060895092E0394B1
S1130CD0000C11F4882352F0BB0F40F4BF2B11F425
S1130CE060FF04C06F5F7F4F8F4F9F4F0895F8944C
S1050CF0FFCF30
S1050CF21200EA
S9030000FC
