S00D0000536C6176652E737265631C
S11300000C942A000C9447000C9447000C9447006D
S11300100C9447000C9447000C9447000C94470040
S11300200C9447000C9447000C9447000C94470030
S11300300C9447000C9447000C9447000C94470020
S11300400C9447000C9447000C9447000C94470010
S11300500C94470011241FBECFE5D8E0DEBFCDBF0E
S113006010E0A0E6B0E0E4EBF9E002C005900D92E8
S1130070A036B107D9F710E0A0E6B0E001C01D92A8
S1130080A036B107E1F70E9454040C94D8040C94F0
S11300900000843409F471C0853448F4823499F141
S11300A0833408F04DC0813409F083C00FC0823618
S11300B051F1833620F4813609F07BC007C08336C2
S11300C009F43EC0843609F074C057C0413069F465
S11300D02AB381E090E0AC0102C0440F551F6A9539
S11300E0E2F7BA01622B6ABB08952AB381E090E07B
S11300F0AC0102C0440F551F6A95E2F7BA0160953E
S113010062236ABB0895413069F427B381E090E02B
S1130110AC0102C0440F551F6A95E2F7BA01622B85
S113012067BB089527B381E090E0AC0102C0440F9F
S1130130551F6A95E2F7BA016095622367BB08957B
S1130140413069F424B381E090E0AC0102C0440F73
S1130150551F6A95E2F7BA01622B64BB089524B374
S113016081E090E0AC0102C0440F551F6A95E2F7AC
S1130170BA016095622364BB0895413069F421B3E8
S113018081E090E0AC0102C0440F551F6A95E2F78C
S1130190BA01622B61BB089521B381E090E0AC0108
S11301A002C0440F551F6A95E2F7BA0160956223B5
S11301B061BB0895843409F471C0853448F48234F1
S11301C099F1833408F04DC0813409F083C00FC025
S11301D0823651F1833620F4813609F07BC007C0A2
S11301E0833609F43EC0843609F074C057C04130E8
S11301F069F42BB381E090E0AC0102C0440F551FB9
S11302006A95E2F7BA01622B6BBB08952BB381E0C8
S113021090E0AC0102C0440F551F6A95E2F7BA01A1
S1130220609562236BBB0895413069F428B381E083
S113023090E0AC0102C0440F551F6A95E2F7BA0181
S1130240622B68BB089528B381E090E0AC0102C042
S1130250440F551F6A95E2F7BA016095622368BBA3
S11302600895413069F425B381E090E0AC0102C007
S1130270440F551F6A95E2F7BA01622B65BB0895D6
S113028025B381E090E0AC0102C0440F551F6A958C
S1130290E2F7BA016095622365BB0895413069F4C1
S11302A022B381E090E0AC0102C0440F551F6A956F
S11302B0E2F7BA01622B62BB089522B381E090E0B9
S11302C0AC0102C0440F551F6A95E2F7BA0160956C
S11302D0622362BB0895843409F44EC0853440F42B
S11302E0823431F18334B0F5813409F057C00EC043
S11302F08236F1F0833620F4813609F04FC006C00F
S1130300833641F1843609F049C036C029B381E00F
S113031090E0062E02C0880F991F0A94E2F730E09D
S11303208223932302C0959587956A95E2F70895F1
S113033026B381E090E0062E02C0880F991F0A942C
S1130340E2F730E08223932302C0959587956A955E
S1130350E2F7089523B381E090E0062E02C0880FEF
S1130360991F0A94E2F730E08223932302C0959503
S113037087956A95E2F7089520B381E090E0062E10
S113038002C0880F991F0A94E2F730E08223932376
S113039002C0959587956A95E2F7089580E00895DF
S11303A0843409F43DC0853440F48234F9F0833454
S11303B050F5813409F040C00CC08236B9F0833660
S11303C018F48136C9F505C08336E9F08436A1F501
S11303D027C02BB381E090E0AC0102C0440F551F4D
S11303E06A95E2F7BA0162276BBB089528B381E0EE
S11303F090E0AC0102C0440F551F6A95E2F7BA01C0
S1130400622768BB089525B381E090E0AC0102C087
S1130410440F551F6A95E2F7BA01622765BB089538
S113042022B381E090E0AC0102C0440F551F6A95ED
S1130430E2F7BA01622762BB08958434D9F08534A7
S113044038F4823499F0833498F48134A1F40CC0E4
S1130450823661F0833618F4813669F405C0833638
S113046039F0843641F406C06ABB089567BB089529
S113047064BB089561BB08958434D9F0853438F49D
S1130480823499F0833498F48134A1F40CC0823618
S113049061F0833618F4813669F405C0833639F087
S11304A0843641F406C06BBB089568BB089565BBF0
S11304B0089562BB08958434D9F0853438F48234C5
S11304C099F0833498F48134A9F40CC0823661F035
S11304D0833618F4813671F405C0833639F08436D6
S11304E049F406C089B3089586B3089583B3089583
S11304F080B3089580E00895843409F471C085348C
S113050048F4823499F1833408F04DC0813409F001
S113051083C00FC0823651F1833620F4813609F04E
S11305207BC007C0833609F43EC0843609F074C02A
S113053057C0413069F42BB381E090E0AC0102C0B4
S1130540440F551F6A95E2F7BA01622B6BBB0895FD
S11305502BB381E090E0AC0102C0440F551F6A95B3
S1130560E2F7BA01609562236BBB0895413069F4E8
S113057028B381E090E0AC0102C0440F551F6A9596
S1130580E2F7BA01622B68BB089528B381E090E0DA
S1130590AC0102C0440F551F6A95E2F7BA01609599
S11305A0622368BB0895413069F425B381E090E08B
S11305B0AC0102C0440F551F6A95E2F7BA01622BE1
S11305C065BB089525B381E090E0AC0102C0440FFF
S11305D0551F6A95E2F7BA016095622365BB0895D9
S11305E0413069F422B381E090E0AC0102C0440FD1
S11305F0551F6A95E2F7BA01622B62BB089522B3D4
S113060081E090E0AC0102C0440F551F6A95E2F707
S1130610BA016095622362BB08956F70823481F0E1
S1130620833418F48134F1F405C0833479F08434CC
S1130630C9F412C08BB3807F8BBB8BB3862B8BBB6F
S113064088B3807F88BB88B3862B88BB85B3807FC3
S113065085BB85B3862B85BB82B3807F82BB82B387
S1130660682B62BB08956295607F823481F0833485
S113067018F48134F1F405C0833479F08434C9F476
S113068012C08BB38F708BBB8BB3862B8BBB88B3A1
S11306908F7088BB88B3862B88BB85B38F7085BB6E
S11306A085B3862B85BB82B38F7082BB82B3682BE4
S11306B062BB089582E460E041E00E94DA008FE9C1
S11306C09FE00197F1F700C0000082E460E040E0A1
S11306D00E94DA008FE99FE00197F1F700C0000063
S11306E00895CF93C82F682F62956F7081E40E949C
S11306F0330382E462E040E00E94DA000E945A037D
S113070081E46C2F0E94330382E462E040E00E94A3
S1130710DA000E945A038FEC97E00197F1F700C0CA
S11307200000CF91089581E464E041E00E94490013
S113073081E465E041E00E94490081E466E041E033
S11307400E94490081E467E041E00E94490082E49C
S113075062E041E00E94490082E460E041E00E94DE
S1130760490082E461E041E00E94490082E461E0E2
S113077040E00E94DA0082E00E9471038FE19EE46F
S11307800197F1F700C0000088E20E9471038FEC2A
S113079097E00197F1F700C000008EE00E9471031A
S11307A08FEC97E00197F1F700C0000081E00E9410
S11307B071038FE19EE40197F1F700C0000086E029
S11307C00E9471038FEC97E00197F1F700C00000DD
S11307D00895CF93C82F682F62956F7081E40E94AB
S11307E0330382E462E041E00E94DA000E945A038B
S11307F081E46C2F0E94330382E462E041E00E94B2
S1130800DA000E945A038FEC97E00197F1F700C0D9
S11308100000CF910895CF93DF93EC018881882362
S113082031F021960E94E90389918823D9F7DF9159
S1130830CF91089581E00E9471038FE19EE40197B6
S1130840F1F700C000000895CF93982F9150923093
S113085020F4613110F4662321F480E80E947103CE
S113086009C0813019F4C62FC15804C0823011F474
S1130870C62FC1548C2F0E9471038FEC97E001970F
S1130880F1F700C00000CF91089541E00E944900B3
S1130890089541E00E94DA00089540E00E94DA00E1
S11308A008950E94D00108950E94A10484E460E0A8
S11308B00E94450484E461E00E94450484E462E00B
S11308C00E94450484E463E00E94450481E40E949C
S11308D0BB04813329F484E460E00E945104F6CF20
S11308E0823329F484E461E00E945104EFCF83331E
S11308F029F484E462E00E945104E8CF843331F7A0
S113090084E463E00E945104E1CF82E464E041E0C6
S11309100E94490082E465E041E00E94490082E4CB
S113092067E041E00E9449006C9A68986998709861
S11309306E9A6B986A9882E464E041E00E94DA005F
S113094008956C986E9A82E466E041E00E94490042
S11309500895CF93C82F82E464E040E00E94DA0057
S1130960CFB9779BFECF82E464E041E00E94DA00D5
S11309708FB1CF9108958FB9779BFECF8FB1089532
S1130980CF93DF93EC018881882379F021960E942C
S1130990A9048FEF92E5A7E081509040A040E1F7D1
S11309A000C000008991882391F7DF91CF910895C9
S10709B0F894FFCFE5
S9030000FC
