S0130000436F6E74726F6C5F7379732E7372656372
S11300000C942A000C94490D0C9447000C9447005E
S11300100C9447000C9447000C9447000C94470040
S11300200C9447000C9447000C948F0D0C944700DB
S11300300C9447000C9447000C9447000C94470020
S11300400C9447000C9447000C9447000C94470010
S11300500C94470011241FBECFE5D8E0DEBFCDBF0E
S113006012E0A0E6B0E0E6ECFDE102C005900D92DE
S1130070A237B107D9F712E0A2E7B2E001C01D929E
S1130080A937B107E1F70E941C0D0C94E10E0C9402
S1130090000040E00E94530008950E9475010895F5
S11300A00E9486020895843409F471C0853448F4AA
S11300B0823499F1833408F04DC0813409F083C04F
S11300C00FC0823651F1833620F4813609F07BC0AB
S11300D007C0833609F43EC0843609F074C057C0A3
S11300E0413069F42AB381E090E0AC0102C0440FCE
S11300F0551F6A95E2F7BA01622B6ABB08952AB3C9
S113010081E090E0AC0102C0440F551F6A95E2F70C
S1130110BA01609562236ABB0895413069F427B33C
S113012081E090E0AC0102C0440F551F6A95E2F7EC
S1130130BA01622B67BB089527B381E090E0AC015C
S113014002C0440F551F6A95E2F7BA016095622315
S113015067BB0895413069F424B381E090E0AC01B9
S113016002C0440F551F6A95E2F7BA01622B64BBC3
S1130170089524B381E090E0AC0102C0440F551F00
S11301806A95E2F7BA016095622364BB0895413031
S113019069F421B381E090E0AC0102C0440F551F23
S11301A06A95E2F7BA01622B61BB089521B381E03D
S11301B090E0AC0102C0440F551F6A95E2F7BA0102
S11301C06095622361BB0895843409F471C0853459
S11301D048F4823499F1833408F04DC0813409F035
S11301E083C00FC0823651F1833620F4813609F082
S11301F07BC007C0833609F43EC0843609F074C05E
S113020057C0413069F42BB381E090E0AC0102C0E7
S1130210440F551F6A95E2F7BA01622B6BBB089530
S11302202BB381E090E0AC0102C0440F551F6A95E6
S1130230E2F7BA01609562236BBB0895413069F41B
S113024028B381E090E0AC0102C0440F551F6A95C9
S1130250E2F7BA01622B68BB089528B381E090E00D
S1130260AC0102C0440F551F6A95E2F7BA016095CC
S1130270622368BB0895413069F425B381E090E0BE
S1130280AC0102C0440F551F6A95E2F7BA01622B14
S113029065BB089525B381E090E0AC0102C0440F32
S11302A0551F6A95E2F7BA016095622365BB08950C
S11302B0413069F422B381E090E0AC0102C0440F04
S11302C0551F6A95E2F7BA01622B62BB089522B307
S11302D081E090E0AC0102C0440F551F6A95E2F73B
S11302E0BA016095622362BB0895843409F44EC058
S11302F0853440F4823431F18334B0F5813409F02B
S113030057C00EC08236F1F0833620F4813609F0EE
S11303104FC006C0833641F1843609F049C036C067
S113032029B381E090E0062E02C0880F991F0A9439
S1130330E2F730E08223932302C0959587956A956E
S1130340E2F7089526B381E090E0062E02C0880FFC
S1130350991F0A94E2F730E08223932302C0959513
S113036087956A95E2F7089523B381E090E0062E1D
S113037002C0880F991F0A94E2F730E08223932386
S113038002C0959587956A95E2F7089520B381E0B8
S113039090E0062E02C0880F991F0A94E2F730E01D
S11303A08223932302C0959587956A95E2F7089571
S11303B080E00895843409F43DC0853440F48234E7
S11303C0F9F0833450F5813409F040C00CC0823612
S11303D0B9F0833618F48136C9F505C08336E9F0DF
S11303E08436A1F527C02BB381E090E0AC0102C0B4
S11303F0440F551F6A95E2F7BA0162276BBB089553
S113040028B381E090E0AC0102C0440F551F6A9507
S1130410E2F7BA01622768BB089525B381E090E052
S1130420AC0102C0440F551F6A95E2F7BA01622776
S113043065BB089522B381E090E0AC0102C0440F93
S1130440551F6A95E2F7BA01622762BB08958434A6
S1130450D9F0853438F4823499F0833498F48134B3
S1130460A1F40CC0823661F0833618F4813669F445
S113047005C0833639F0843641F406C06ABB08955A
S113048067BB089564BB089561BB08958434D9F0B3
S1130490853438F4823499F0833498F48134A1F4A7
S11304A00CC0823661F0833618F4813669F405C0D5
S11304B0833639F0843641F406C06BBB089568BBBB
S11304C0089565BB089562BB08958434D9F08534DA
S11304D038F4823499F0833498F48134A9F40CC04C
S11304E0823661F0833618F4813671F405C08336A0
S11304F039F0843649F406C089B3089586B3089563
S113050083B3089580B3089580E00895843409F492
S113051071C0853448F4823499F1833408F04DC0B5
S1130520813409F083C00FC0823651F1833620F440
S1130530813609F07BC007C0833609F43EC0843697
S113054009F074C057C0413069F42BB381E090E0E6
S1130550AC0102C0440F551F6A95E2F7BA01622B41
S11305606BBB08952BB381E090E0AC0102C0440F53
S1130570551F6A95E2F7BA01609562236BBB089533
S1130580413069F428B381E090E0AC0102C0440F2B
S1130590551F6A95E2F7BA01622B68BB089528B328
S11305A081E090E0AC0102C0440F551F6A95E2F768
S11305B0BA016095622368BB0895413069F425B39C
S11305C081E090E0AC0102C0440F551F6A95E2F748
S11305D0BA01622B65BB089525B381E090E0AC01BC
S11305E002C0440F551F6A95E2F7BA016095622371
S11305F065BB0895413069F422B381E090E0AC0119
S113060002C0440F551F6A95E2F7BA01622B62BB20
S1130610089522B381E090E0AC0102C0440F551F5D
S11306206A95E2F7BA016095622362BB08956F7020
S1130630823481F0833418F48134F1F405C08334B6
S113064079F08434C9F412C08BB3807F8BBB8BB335
S1130650862B8BBB88B3807F88BB88B3862B88BBF3
S113066085B3807F85BB85B3862B85BB82B3807FB2
S113067082BB82B3682B62BB08956295607F82342B
S113068081F0833418F48134F1F405C0833479F0B3
S11306908434C9F412C08BB38F708BBB8BB3862B9D
S11306A08BBB88B38F7088BB88B3862B88BB85B31C
S11306B08F7085BB85B3862B85BB82B38F7082BB5D
S11306C082B3682B62BB08959FBB8EBB6DBBE29A5D
S11306D0E19AE199FECF08959FBB8EBBE09A8DB35A
S11306E0089583E460E041E00E94530083E461E004
S11306F041E00E94530083E462E041E00E94530021
S113070083E463E041E00E94530083E464E040E05A
S11307100E94530083E465E040E00E94530083E4B8
S113072066E040E00E94530083E467E040E00E94FA
S1130730530083E464E041E00E94860283E465E0C0
S113074041E00E94860283E466E041E00E94860262
S113075083E467E041E00E94860208950F931F93AB
S1130760CF93DF93CDB7DEB760970FB6F894DEBFB3
S11307700FBECDBFDE011196E0E6F0E080E101900E
S11307800D928150E1F700E083E46FEF0E941703BC
S113079083E4602F40E00E94E40010E0612F6C5F6E
S11307A083E40E944D00882361F4E02FF0E0EE0F13
S11307B0FF1FEE0FFF1FE10FF11DEC0FFD1F8181E5
S11307C004C01F5F143051F70BC060960FB6F89445
S11307D0DEBF0FBECDBFDF91CF911F910F91089562
S11307E00F5F043089F68FEFF0CF81E460E041E0E1
S11307F00E94E4008FE99FE00197F1F700C0000038
S113080081E460E040E00E94E4008FE99FE001970A
S1130810F1F700C000000895CF93C82F682F6295A8
S11308206F7081E40E943D0381E462E040E00E9435
S1130830E4000E94F50381E46C2F0E943D0381E4EF
S113084062E040E00E94E4000E94F5038FEC97E030
S11308500197F1F700C00000CF91089581E464E0AE
S113086041E00E94530081E465E041E00E945300AE
S113087081E466E041E00E94530081E467E041E0E6
S11308800E94530081E462E041E00E94530081E44D
S113089060E041E00E94530081E461E041E00E9495
S11308A0530081E461E040E00E94E40082E00E94A1
S11308B00C048FE19EE40197F1F700C0000088E288
S11308C00E940C048FEC97E00197F1F700C0000040
S11308D08EE00E940C048FEC97E00197F1F700C0C2
S11308E0000081E00E940C048FE19EE40197F1F77F
S11308F000C0000086E00E940C048FEC97E0019792
S1130900F1F700C000000895CF93C82F682F6295B7
S11309106F7081E40E943D0381E462E041E00E9443
S1130920E4000E94F50381E46C2F0E943D0381E4FE
S113093062E041E00E94E4000E94F5038FEC97E03E
S11309400197F1F700C00000CF910895CF93DF9392
S1130950EC018881882331F021960E9484048991D6
S11309608823D9F7DF91CF91089581E00E940C0488
S11309708FE19EE40197F1F700C000000895CF9342
S1130980982F9150923020F4613110F4662321F4B1
S113099080E80E940C0409C0813019F4C62FC158A4
S11309A004C0823011F4C62FC1548C2F0E940C0451
S11309B08FEC97E00197F1F700C00000CF91089504
S11309C00E9473050E94E5040895CF93DF930E946B
S11309D0B50480E790E00E94A60482E061E00E94F2
S11309E0BF04C0E00E94AE03D82F8FEF91EEA4E0C5
S11309F081509040A040E1F700C00000DF3F71F457
S1130A000E94AE03D82F8FEF91EEA4E08150904066
S1130A10A040E1F700C00000DF3F91F3DA3241F07B
S1130A20DF3231F0DD3221F0DB32B9F4CC23F1F1E5
S1130A3082E06C2F0E94BF0480E20E94840482E062
S1130A406C2F0E94BF048C2F90E08B5A9F4F6FEF46
S1130A5070E00E946403C150C5CF2C2F30E0C9015F
S1130A608A5A9F4F6D2F70E00E9464038D2F0E945D
S1130A7084048FEF90E7A2E081509040A040E1F71A
S1130A8000C00000CF5F82E06C2F0E94BF048AE2A6
S1130A900E948404C43008F4A5CF81E590E061E0AD
S1130AA070E00E946403DF91CF9108958C2F90E051
S1130AB08A5A9F4F6BE270E00E9464038BE20E94AB
S1130AC084048FEF90E7A2E081509040A040E1F7CA
S1130AD000C00000CF5F82E06C2F0E94BF048AE256
S1130AE00E9484047FCFCF93DF930E94B50481E8F2
S1130AF090E00E94A60482E061E00E94BF04C0E08E
S1130B000E94AE03D82F8FEF91EEA4E08150904065
S1130B10A040E1F700C00000DF3F71F40E94AE0383
S1130B20D82F8FEF91EEA4E081509040A040E1F7E0
S1130B3000C00000DF3F91F3DA3241F0DF3231F0E0
S1130B40DD3221F0DB32B9F4CC23F1F182E06C2FF9
S1130B500E94BF0480E20E94840482E06C2F0E9401
S1130B60BF048C2F90E08F5A9F4F6FEF70E00E946C
S1130B706403C150C5CF2C2F30E0C9018E5A9F4F5A
S1130B806D2F70E00E9464038D2F0E9484048FEF08
S1130B9090E7A2E081509040A040E1F700C000003F
S1130BA0CF5F82E06C2F0E94BF048AE20E9484041B
S1130BB0C43008F4A5CF80E590E061E070E00E94C5
S1130BC06403DF91CF9108958C2F90E08E5A9F4F4C
S1130BD06BE270E00E9464038BE20E9484048FEF56
S1130BE090E7A2E081509040A040E1F700C00000EF
S1130BF0CF5F82E06C2F0E94BF048AE20E948404CB
S1130C007FCF78948BB780648BBF85B78E7F85BF89
S1130C1085B7826085BF08950E942E040E947103E7
S1130C200E94BF0D0E94010660E875E280E090E03A
S1130C300E947C0E0E940C0E089580E690E00E94B3
S1130C406C038130910511F40E94580B80E590E00B
S1130C500E946C038F3F910539F481E590E00E9476
S1130C606C038F3F910579F080E590E00E946C035E
S1130C708F3F910559F081E590E00E946C038F3F0E
S1130C80910549F406C00E94E00408950E9473058A
S1130C9008950E94E504089581E0809373020E9400
S1130CA0B50482E990E00E94A60482E061E00E941B
S1130CB0BF048EE990E00E94A6040E94AE032FEFC9
S1130CC031EE44E0215030404040E1F700C00000E4
S1130CD0982F9053923078F00E94AE032FEF31EEAC
S1130CE044E0215030404040E1F700C00000982F1C
S1130CF09053923088F7803319F40E94480C089579
S1130D00813311F40E94950B08950E94B5048EEA74
S1130D1090E00E94A60482E061E00E94BF048FEB91
S1130D2090E00E94A6040E94AE032FEF31EE44E04F
S1130D30215030404040E1F700C000008F3F69F48B
S1130D400E94AE032FEF31EE44E02150304040408A
S1130D50E1F700C000008F3F99F3813419F40E9439
S1130D604C060895813319F40E943709089582339B
S1130D7029F482E090E00E940B070895833399F6EA
S1130D800E940D090895CF93C82F0E94B50489ECE1
S1130D9090E00E94A604809173028D7F8093730279
S1130DA089B78D7F89BF8FEF92E5A7E0815090408E
S1130DB0A040E1F700C00000C23019F40E9485068B
S1130DC004C0C13011F40E945707CF910895CF9306
S1130DD0C82F0E94B50487ED90E00E94A60480917C
S1130DE0730282608093730289B7826089BF8FEF38
S1130DF092E5A7E081509040A040E1F700C00000D8
S1130E00C23019F40E94850604C0C13011F40E9456
S1130E105707CF910895CF93DF93D82F0E94B5043D
S1130E2085EE90E00E94A60482E061E00E94BF0487
S1130E3083EF90E00E94A6040E94AE03C82F8FEFB8
S1130E4091EEA4E081509040A040E1F700C0000082
S1130E50CF3F71F40E94AE03C82F8FEF91EEA4E050
S1130E6081509040A040E1F700C00000CF3F91F3D3
S1130E70C13429F4D230A9F40E9485060BC0C133D1
S1130E8049F403C00E9457070FC08D2F90E00E94C1
S1130E90E7060AC0C23381F68D2F90E00E94C30694
S1130EA003C0D130B9F7EECFDF91CF9108950E94FE
S1130EB0B50481E00E940B070895CF92DF92EF9270
S1130EC0FF920F931F93CF93DF930F2EF2E0EF2E39
S1130ED0F1E0FF2EF02D0F2EFBE0CF2EF1E0DF2E00
S1130EE0F02D0E94B504C7010E94A6048FEF91EE75
S1130EF0A4E081509040A040E1F700C0000081E0F0
S1130F0067E00E94BF040E94AE03D82F8F3FD9F33D
S1130F10813419F40E94850607C0082F10E0C80127
S1130F20C097833091057CF00E94B504C6010E94ED
S1130F30A6048FEF94E3ACE081509040A040E1F729
S1130F4000C00000CECF8D2F0E9484048FEF91EE5D
S1130F50A4E081509040A040E1F700C000000E944E
S1130F60AE03C82F8F3FD9F3813411F40E94850654
S1130F70C801880F991F000F111F000F111F000FC8
S1130F80111F080F191F0C0F111D005112400931B8
S1130F9011057CF00E94B504C6010E94A6048FEFDF
S1130FA094E3ACE081509040A040E1F700C0000021
S1130FB098CF8C2F0E9484048FEF91EEA4E081508F
S1130FC09040A040E1F700C00000C051DD0F8D2F1C
S1130FD0880F880FD80FDC0FD09377020F2EFAE119
S1130FE0EF2EF1E0FF2EF02D0F2EFBE0CF2EF1E0DF
S1130FF0DF2EF02D0E94B504C7010E94A60481E0F3
S113100069E00E94BF040E94AE03D82F8F3FD9F33A
S1131010813419F40E94850607C0082F10E0C80126
S1131020C097873091057CF00E94B504C6010E94E8
S1131030A6048FEF94E3ACE081509040A040E1F728
S113104000C00000D7CF8D2F0E9484048FEF91EE53
S1131050A4E081509040A040E1F700C000000E944D
S1131060AE03C82F8F3FD9F3813411F40E94850653
S1131070C801880F991F000F111F000F111F000FC7
S1131080111F080F191F0C0F111D005112400D33B1
S113109011057CF00E94B504C6010E94A6048FEFDE
S11310A094E3ACE081509040A040E1F700C0000020
S11310B0A1CF8C2F0E9484048FEF91EEA4E0815085
S11310C09040A040E1F700C00000C051DD0F8D2F1B
S11310D0880F880FD80FDC0FD09375020F2EF5E21E
S11310E0EF2EF1E0FF2EF02D0F2EFBE0CF2EF1E0DE
S11310F0DF2EF02D0E94B504C7010E94A60481E0F2
S113110069E00E94BF040E94AE03D82F8F3FD9F339
S1131110813419F40E94850607C0082F10E0C80125
S1131120C097873091057CF00E94B504C6010E94E7
S1131130A6048FEF94E3ACE081509040A040E1F727
S113114000C00000D7CF8D2F0E9484048FEF91EE52
S1131150A4E081509040A040E1F700C000000E944C
S1131160AE03C82F8F3FD9F3813411F40E94850652
S1131170C801880F991F000F111F000F111F000FC6
S1131180111F080F191F0C0F111D005112400D33B0
S113119011057CF00E94B504C6010E94A6048FEFDD
S11311A094E3ACE081509040A040E1F700C000001F
S11311B0A1CF8C2F0E9484048FEF91EEA4E0815084
S11311C09040A040E1F700C000000E94B504C05167
S11311D0DD0F8D2F880F880FD80FDC0FD093760288
S11311E08091770280628093770280917502806497
S11311F0809375028091760280688093760281E004
S1131200809374020E948506DF91CF911F910F9104
S1131210FF90EF90DF90CF9008950E94B50480E393
S113122091E00E94A6040E94AE032FEF31EE44E049
S1131230215030404040E1F700C000008F3F69F486
S11312400E94AE032FEF31EE44E021503040404085
S1131250E1F700C000008F3F99F3813419F40E9434
S1131260850608958133F9F60E945D0708950E946A
S1131270B5048BE391E00E94A60482E061E00E9441
S1131280BF048BE491E00E94A6040E94AE032FEFFA
S113129031EE44E0215030404040E1F700C000000E
S11312A08F3F69F40E94AE032FEF31EE44E02150EA
S11312B030404040E1F700C000008F3F99F3813493
S11312C019F40E9485060895813319F40E940D0BC8
S11312D00895823319F40E94C20A0895833319F4DD
S11312E00E94770A0895843381F60E94780908954C
S11312F00E94B50489E591E00E94A60482E061E0C1
S11313000E94BF048CE691E00E94A6040E94AE03F2
S11313102FEF31EE44E0215030404040E1F700C06F
S113132000008F3F69F40E94AE032FEF31EE44E0DA
S1131330215030404040E1F700C000008F3F99F356
S1131340813419F40E9437090895813319F40E94F5
S11313502C0A08958233D1F60E94AF0908950F93A1
S11313601F93CF93DF930E94B5048AE791E00E9414
S1131370A60482E061E00E94BF04D0E0C0E002E085
S113138011E00E94AE032FEF31EE44E021503040D3
S11313904040E1F700C000008F3F69F40E94AE03B3
S11313A02FEF31EE44E0215030404040E1F700C0DF
S11313B000008F3F99F3982F90539A3098F4CC23E0
S11313C049F4982F990FD92FDD0FDD0FD90FD05E77
S11313D0C12F05C0C13019F4D053D80FC02F0E94BB
S11313E0840404C0813411F40E947809C23048F2A4
S11313F0DF3118F4D23118F003C0DEE101C0D2E1CC
S1131400809178028F7D80937802809178028F7B1F
S113141080937802809178028F778093780280910C
S113142078028093780280917802D251D295DD0FB0
S1131430D07ED82BD09378028FEF91EEA4E0815028
S11314409040A040E1F700C000000E947809DF91BD
S1131450CF911F910F9108950E94B5048BE891E0FC
S11314600E94A60482E061E00E94BF048CE991E03E
S11314700E94A6040E94AE032FEF31EE44E02150F7
S113148030404040E1F700C000008F3F69F40E9403
S1131490AE032FEF31EE44E0215030404040E1F7FD
S11314A000C000008F3F99F3813419F40E94780939
S11314B00895813319F40E946D0A08958233D1F698
S11314C00E94630A08950E94B504809178028F7E79
S11314D0809378020E942C0A08950E94B50480919A
S11314E078028061809378020E942C0A08950E94F9
S11314F0B50487EA91E00E94A60482E061E00E94BC
S1131500BF0488EB91E00E94A6040E94AE032FEF73
S113151031EE44E0215030404040E1F700C000008B
S11315208F3F69F40E94AE032FEF31EE44E0215067
S113153030404040E1F700C000008F3F99F3813410
S113154019F40E9437090895813319F40E94B80AE6
S113155008958233D1F60E94AE0A08950E94B5041C
S113156080917802877F809378020E94770A089599
S11315700E94B504809178028860809378020E946A
S1131580770A08950E94B50487EA91E00E94A604B0
S113159082E061E00E94BF0488EC91E00E94A6040E
S11315A00E94AE032FEF31EE44E021503040404022
S11315B0E1F700C000008F3F69F40E94AE032FEFF3
S11315C031EE44E0215030404040E1F700C00000DB
S11315D08F3F99F3813419F40E94370908958133B8
S11315E019F40E94030B08958233D1F60E94F90A7C
S11315F008950E94B504809178028B7F80937802CD
S11316000E94C20A08950E94B50480917802846001
S1131610809378020E94C20A08950E94B50487EA62
S113162091E00E94A60482E061E00E94BF0488ED7C
S113163091E00E94A6040E94AE032FEF31EE44E035
S1131640215030404040E1F700C000008F3F69F472
S11316500E94AE032FEF31EE44E021503040404071
S1131660E1F700C000008F3F99F3813419F40E9420
S113167037090895813319F40E944E0B089582337B
S1131680D1F60E94440B08950E94B504809178021B
S11316908D7F809378020E940D0B08950E94B504FB
S11316A0809178028260809378020E940D0B0895E5
S11316B00E94B50480E690E061E070E00E9464035B
S11316C088EE91E00E94A60482E061E00E94BF04DB
S11316D086EF91E00E94A60480E30E94840482E3E2
S11316E00E94840480E30E94840481E092E00E94CA
S11316F0A60484E12FEF39E648E121503040404010
S1131700E1F700C000008150A9F780E690E060E0B6
S113171070E00E9464030E944C0608950E94B50480
S113172085E092E00E94A604FFCF7F928F929F9261
S1131730AF92BF92CF92DF92EF92FF920F931F93DB
S1131740CF93DF930F2EF2E3EF2EF02D0F2EF4E163
S1131750CF2EF2E0DF2EF02D77240F2EF7E2AF2EFE
S1131760F2E0BF2EF02D0F2EF2E38F2EF2E09F2E2B
S1131770F02D0E94B504C6010E94A60482E061E037
S11317800E94BF0406E510E0F72C0E94AE03C82FA8
S11317908FEF91EEA4E081509040A040E1F700C0AB
S11317A00000CF3F71F40E94AE03C82F8FEF91EE7B
S11317B0A4E081509040A040E1F700C00000CF3F7A
S11317C091F38C2F0E9484048FEF90E7A2E0815064
S11317D09040A040E1F700C00000602F655582E012
S11317E00E94BF048AE20E948404C8010E946C0320
S11317F0D0E0C817D90709F0F3940F5F1F4F0A35DB
S1131800110519F6FF2019F40E94570733C00E94EE
S1131810B504C5010E94A60482E061E00E94BF04F1
S1131820C4010E94A6048E2D0E9484048FEF96E1C9
S1131830A1E181509040A040E1F700C0000080E1A8
S113184090E00E946C03BC016F5F7F4F80E190E0E9
S11318500E94640380E190E00E946C03893091054A
S113186011F40E948E0BEA949FE2E91609F081CFED
S11318700E94580BDF91CF911F910F91FF90EF9031
S1131880DF90CF90BF90AF909F908F907F900895FE
S11318907F928F929F92AF92BF92CF92DF92EF92FC
S11318A0FF920F931F93CF93DF930F2EF2E3EF2E4C
S11318B0F02D0F2EF0E4CF2EF2E0DF2EF02D772462
S11318C00F2EF7E2AF2EF2E0BF2EF02D0F2EF2E333
S11318D08F2EF2E09F2EF02D0E94B504C6010E94C7
S11318E0A60482E061E00E94BF0402E510E0F72C48
S11318F00E94AE03C82F8FEF91EEA4E08150904078
S1131900A040E1F700C00000CF3F71F40E94AE0395
S1131910C82F8FEF91EEA4E081509040A040E1F7F2
S113192000C00000CF3F91F38C2F0E9484048FEFFE
S113193090E7A2E081509040A040E1F700C0000091
S1131940602F615582E00E94BF048AE20E948404F1
S1131950C8010E946C03D0E0C817D90709F0F394BA
S11319600F5F1F4F0635110519F6FF2019F40E9469
S1131970850633C00E94B504C5010E94A60482E016
S113198061E00E94BF04C4010E94A6048E2D0E943F
S113199084048FEF96E1A1E181509040A040E1F7EB
S11319A000C0000080E190E00E946C03BC016F5F06
S11319B07F4F80E190E00E94640380E190E00E9408
S11319C06C038930910511F40E948E0BEA949FE216
S11319D0E91609F081CF0E94580BDF91CF911F9136
S11319E00F91FF90EF90DF90CF90BF90AF909F90BA
S11319F08F907F90089583E592E00E94A60482E090
S1131A0061E00E94BF0484E692E00E94A6048FEF86
S1131A1096E1A1E181509040A040E1F700C00000B0
S1131A200E94B50480E190E00E946C038930910526
S1131A3011F40E948E0B08951F93CF93DF930E949D
S1131A400C060E94FB0C80E191E00E946C03D82FED
S1131A5080E792E00E946C03182F80E893E00E94D4
S1131A606C03C82F82E190E00E946C038F3F9105C4
S1131A7021F0D10FCD0FC83711F00E948E0B0E94B8
S1131A801D060E944C0680E090E0DF91CF911F91EB
S1131A9008951F920F920FB60F9211242F933F9324
S1131AA04F935F936F937F938F939F93AF93BF9362
S1131AB0EF93FF93809178020E94D90D8091730275
S1131AC00E94D90D80917402813079F4809177025B
S1131AD00E94D90D809175020E94D90D80917602E1
S1131AE00E94D90D1092740209C080E00E94D90DA1
S1131AF080E00E94D90D80E00E94D90DFF91EF9102
S1131B00BF91AF919F918F917F916F915F914F9111
S1131B103F912F910F900FBE0F901F9018951F9219
S1131B200F920FB60F9211248F93809172028F5FE0
S1131B3080937202809172028F910F900FBE0F906A
S1131B401F90189582E464E041E00E94530082E40F
S1131B5065E041E00E94530082E467E041E00E94B6
S1131B6053006C9A6898699870986E9A6F9A6B98FB
S1131B706A9882E464E041E00E94E40008956C986D
S1131B806E9A82E466E041E00E9453000895CF9388
S1131B90C82F82E464E040E00E94E400CFB9779B60
S1131BA0FECF82E464E041E00E94E4008FB1CF9173
S1131BB008958FB9779BFECF8FB10895CF93DF93AC
S1131BC0EC018881882379F021960E94C70D8FEF5C
S1131BD092E5A7E081509040A040E1F700C00000EA
S1131BE08991882391F7DF91CF91089583B7877FF7
S1131BF083BF83B78F7B83BF83B7816083BF83B782
S1131C008D7F83BF83B7846083BF789489B78160F5
S1131C1089BF88EC82BF089583B7886083BF83B788
S1131C208F7B83BF83B7816083BF83B78D7F83BF7F
S1131C3083B7846083BF789489B78D7F89BF8CE92B
S1131C408CBF0895BB9A83B7886083BF83B78F7BAB
S1131C5083BF83B7816083BF83B78D7F83BF83B71F
S1131C60846083BF8CE98CBF83B7806183BF089590
S1131C70BB9A83B7886083BF83B7806483BF83B70D
S1131C80816083BF83B78D7F83BF83B7846083BF45
S1131C9080EC8CBF83B7806283BF0895BB9A83B7FF
S1131CA0877F83BF83B7806483BF83B7816083BF2B
S1131CB083B78D7F83BF83B7846083BF80EC8CBF81
S1131CC083B7806283BF089585B5877F85BD85B559
S1131CD08F7B85BD85B5846085BD85B58D7F85BDCC
S1131CE085B5816085BD82B5886082BD789489B7E9
S1131CF0806489BF14BC0895DC01CB01880F991F4F
S1131D00AA1FBB1F880F991FAA1FBB1F9C01AD01EF
S1131D10220F331F441F551F220F331F441F551F0B
S1131D2060E072E18AE790E00E94BF0E21503040EB
S1131D3030BD29B9539A549A86E880BD08955D9BB5
S1131D40FECF8CB908955F9BFECF8CB10895CF93DD
S1131D50DF93EC018881882379F021960E949F0EFD
S1131D608FEF90E7A2E081509040A040E1F700C0DF
S1131D7000008991882391F7DF91CF910895A1E222
S1131D801A2EAA1BBB1BFD010DC0AA1FBB1FEE1FF1
S1131D90FF1FA217B307E407F50720F0A21BB30B3C
S1131DA0E40BF50B661F771F881F991F1A9469F7B8
S1131DB060957095809590959B01AC01BD01CF0114
S1091DC00895F894FFCF22
S1131DC63738392F3435362A3132332D41303D2BCD
S1131DD653657420677565737420706173733A2054
S1131DE6005365742061646D696E20706173733A83
S1131DF6200053656C656374206D6F646500303A2A
S1131E0641646D696E20313A477565737400313AE1
S1131E16526F6F6D2020323A4761726167650033F5
S1131E263A446973706C6179004761726167652031
S1131E36436C6F73656400476172616765204F7018
S1131E46656E656400313A4F70656E206761726134
S1131E56676500323A436C6F736520676172616728
S1131E666500486F7572733D2D2D00496E76616C61
S1131E766964204E756D626572004D696E75746590
S1131E86733D2D2D005365636F6E64733D2D2D00D8
S1131E96313A5365742074696D6500313A4C454492
S1131EA631202020323A4C45443200333A4C4544E2
S1131EB633202020343A414300313A436F6E747222
S1131EC66F6C20202020202020414300323A5465A4
S1131ED66D706572617475726500536574207465FE
S1131EE66D70657261747572653A00313A54757233
S1131EF66E204F6E2020202020414300323A547534
S1131F06726E204F666600313A5475726E204F6EBB
S1131F16202020204C454400323A5475726E204FDE
S1131F266666202020203300323A5475726E204FA4
S1131F366666202020203200323A5475726E204F95
S1131F4666662020202031004F7574206F66207449
S1131F567269616C73005761697420666F723A2006
S1131F66007365630053797374656D20426C6F6307
S1131F766B656400456E74657220677565737420BD
S1131F86706173733A200057726F6E6720706173C5
S1131F967300547269616C73206C6566743A200030
S1131FA6456E7465722061646D696E207061737329
S1131FB63A200057656C636F6D6520746F20536D0E
S1131FC661727400486F6D652050726F6A65637440
S1051FD6000005
S9030000FC
