S00B00004350552E7372656331
S11300000C942A000C9447000C9447000C9447006D
S11300100C9447000C9447000C9447000C94470040
S11300200C9447000C9447000C9447000C94470030
S11300300C9447000C9447000C9447000C94470020
S11300400C9447000C9447000C9447000C94470010
S11300500C94470011241FBECFE5D8E0DEBFCDBF0E
S113006010E0A0E6B0E0E0E2F0E102C005900D92FD
S1130070A037B107D9F710E0A0E7B0E001C01D92A6
S1130080A937B107E1F70E94BC010C940E080C9447
S1130090000040E00E94310208950E945303089535
S11300A00E946404089583E490E062E070E041E01B
S11300B050E00E94C2028FE697E10197F1F700C079
S11300C0000083E490E062E070E040E050E00E94D1
S11300D0C20284E463E443E00E94F1068093780062
S11300E083E490E062E070E041E050E00E94C202EC
S11300F08FE697E10197F1F700C0000083E490E0F8
S113010062E070E040E050E00E94C20287E463E4F1
S113011043E00E94F1068093700083E490E062E083
S113012070E041E050E00E94C2028FE697E101973F
S1130130F1F700C0000083E490E062E070E040E08A
S113014050E00E94C20288E463E443E00E94F106A6
S11301508093770083E490E062E070E041E050E057
S11301600E94C2028FE697E10197F1F700C00000F8
S113017083E490E062E070E040E050E00E94C2025C
S11301808DE463E443E00E94F1068093750083E408
S113019090E062E070E041E050E00E94C2028FE62D
S11301A097E10197F1F700C0000083E490E062E07A
S11301B070E040E050E00E94C20283E563E443E063
S11301C00E94F1068093760083E490E063E070E09F
S11301D041E050E00E94C202089583E490E060E0B0
S11301E070E041E050E00E94C2028FE697E101977F
S11301F0F1F700C0000083E490E060E070E040E0CC
S113020050E00E94C2028091780063E441E00E94C1
S1130210F10683E490E060E070E041E050E00E9489
S1130220C2028FE697E10197F1F700C0000083E472
S113023090E060E070E040E050E00E94C2028091F3
S1130240780063E441E00E94F10683E490E061E019
S113025070E041E050E00E94C202089583E490E01F
S113026064E070E041E050E00E94C2028FE697E152
S11302700197F1F700C0000083E490E064E070E0CF
S113028040E050E00E94C202809178000E94CC07B6
S11302908091770063E445E00E94F10683E490E0F6
S11302A064E070E041E050E00E94C2028FE697E112
S11302B00197F1F700C0000083E490E064E070E08F
S11302C040E050E00E94C202809178000E94CC0776
S11302D08091750063E445E00E94F10683E490E0B8
S11302E064E070E041E050E00E94C2028FE697E1D2
S11302F00197F1F700C0000083E490E064E070E04F
S113030040E050E00E94C202809178000E94CC0735
S11303108091760063E445E00E94F10683E490E076
S113032065E070E041E050E00E94C202089583E479
S113033090E066E070E041E050E00E94C2028FE687
S113034097E10197F1F700C0000083E490E066E0D4
S113035070E040E050E00E94C2028091700063E4CB
S113036047E00E94F10683E490E067E070E041E03A
S113037050E00E94C20208950E94BE0660E875E241
S113038080E090E00E94A90783E490E060E070E0E0
S113039041E050E00E94310283E490E061E070E0CB
S11303A041E050E00E94310283E490E062E070E0BA
S11303B041E050E00E94310283E490E063E070E0A9
S11303C041E050E00E94310283E490E065E070E097
S11303D041E050E00E94310283E490E064E070E088
S11303E041E050E00E94310283E490E067E070E075
S11303F041E050E00E94310283E490E066E070E066
S113040041E050E00E9431020E9453008FEF90E7D8
S1130410A2E081509040A040E1F700C000000E949B
S1130420ED008FEF90E7A2E081509040A040E1F70B
S113043000C000000E942E018FEF90E7A2E08150DF
S11304409040A040E1F700C000000E9497018FEFA8
S113045090E7A2E081509040A040E1F700C0000086
S1130460D3CF843409F471C0853448F4823499F1CB
S1130470833408F04DC0813409F083C00FC0823644
S113048051F1833620F4813609F07BC007C08336EE
S113049009F43EC0843609F074C057C0413069F491
S11304A02AB381E090E0AC0102C0440F551F6A9565
S11304B0E2F7BA01622B6ABB08952AB381E090E0A7
S11304C0AC0102C0440F551F6A95E2F7BA0160956A
S11304D062236ABB0895413069F427B381E090E058
S11304E0AC0102C0440F551F6A95E2F7BA01622BB2
S11304F067BB089527B381E090E0AC0102C0440FCC
S1130500551F6A95E2F7BA016095622367BB0895A7
S1130510413069F424B381E090E0AC0102C0440F9F
S1130520551F6A95E2F7BA01622B64BB089524B3A0
S113053081E090E0AC0102C0440F551F6A95E2F7D8
S1130540BA016095622364BB0895413069F421B314
S113055081E090E0AC0102C0440F551F6A95E2F7B8
S1130560BA01622B61BB089521B381E090E0AC0134
S113057002C0440F551F6A95E2F7BA0160956223E1
S113058061BB0895843409F471C0853448F482341D
S113059099F1833408F04DC0813409F083C00FC051
S11305A0823651F1833620F4813609F07BC007C0CE
S11305B0833609F43EC0843609F074C057C0413014
S11305C069F42BB381E090E0AC0102C0440F551FE5
S11305D06A95E2F7BA01622B6BBB08952BB381E0F5
S11305E090E0AC0102C0440F551F6A95E2F7BA01CE
S11305F0609562236BBB0895413069F428B381E0B0
S113060090E0AC0102C0440F551F6A95E2F7BA01AD
S1130610622B68BB089528B381E090E0AC0102C06E
S1130620440F551F6A95E2F7BA016095622368BBCF
S11306300895413069F425B381E090E0AC0102C033
S1130640440F551F6A95E2F7BA01622B65BB089502
S113065025B381E090E0AC0102C0440F551F6A95B8
S1130660E2F7BA016095622365BB0895413069F4ED
S113067022B381E090E0AC0102C0440F551F6A959B
S1130680E2F7BA01622B62BB089522B381E090E0E5
S1130690AC0102C0440F551F6A95E2F7BA01609598
S11306A0622362BB0895843409F44EC0853440F457
S11306B0823431F18334B0F5813409F057C00EC06F
S11306C08236F1F0833620F4813609F04FC006C03B
S11306D0833641F1843609F049C036C029B381E03C
S11306E090E0062E02C0880F991F0A94E2F730E0CA
S11306F08223932302C0959587956A95E2F708951E
S113070026B381E090E0062E02C0880F991F0A9458
S1130710E2F730E08223932302C0959587956A958A
S1130720E2F7089523B381E090E0062E02C0880F1B
S1130730991F0A94E2F730E08223932302C095952F
S113074087956A95E2F7089520B381E090E0062E3C
S113075002C0880F991F0A94E2F730E082239323A2
S113076002C0959587956A95E2F7089580E008950B
S1130770843409F43DC0853440F48234F9F0833480
S113078050F5813409F040C00CC08236B9F083368C
S113079018F48136C9F505C08336E9F08436A1F52D
S11307A027C02BB381E090E0AC0102C0440F551F79
S11307B06A95E2F7BA0162276BBB089528B381E01A
S11307C090E0AC0102C0440F551F6A95E2F7BA01EC
S11307D0622768BB089525B381E090E0AC0102C0B4
S11307E0440F551F6A95E2F7BA01622765BB089565
S11307F022B381E090E0AC0102C0440F551F6A951A
S1130800E2F7BA01622762BB08958434D9F08534D3
S113081038F4823499F0833498F48134A1F40CC010
S1130820823661F0833618F4813669F405C0833664
S113083039F0843641F406C06ABB089567BB089555
S113084064BB089561BB08958434D9F0853438F4C9
S1130850823499F0833498F48134A1F40CC0823644
S113086061F0833618F4813669F405C0833639F0B3
S1130870843641F406C06BBB089568BB089565BB1C
S1130880089562BB08958434D9F0853438F48234F1
S113089099F0833498F48134A9F40CC0823661F061
S11308A0833618F4813671F405C0833639F0843602
S11308B049F406C089B3089586B3089583B30895AF
S11308C080B3089580E00895843409F471C08534B8
S11308D048F4823499F1833408F04DC0813409F02E
S11308E083C00FC0823651F1833620F4813609F07B
S11308F07BC007C0833609F43EC0843609F074C057
S113090057C0413069F42BB381E090E0AC0102C0E0
S1130910440F551F6A95E2F7BA01622B6BBB089529
S11309202BB381E090E0AC0102C0440F551F6A95DF
S1130930E2F7BA01609562236BBB0895413069F414
S113094028B381E090E0AC0102C0440F551F6A95C2
S1130950E2F7BA01622B68BB089528B381E090E006
S1130960AC0102C0440F551F6A95E2F7BA016095C5
S1130970622368BB0895413069F425B381E090E0B7
S1130980AC0102C0440F551F6A95E2F7BA01622B0D
S113099065BB089525B381E090E0AC0102C0440F2B
S11309A0551F6A95E2F7BA016095622365BB089505
S11309B0413069F422B381E090E0AC0102C0440FFD
S11309C0551F6A95E2F7BA01622B62BB089522B300
S11309D081E090E0AC0102C0440F551F6A95E2F734
S11309E0BA016095622362BB08956F70823481F00E
S11309F0833418F48134F1F405C0833479F08434F9
S1130A00C9F412C08BB3807F8BBB8BB3862B8BBB9B
S1130A1088B3807F88BB88B3862B88BB85B3807FEF
S1130A2085BB85B3862B85BB82B3807F82BB82B3B3
S1130A30682B62BB08956295607F823481F08334B1
S1130A4018F48134F1F405C0833479F08434C9F4A2
S1130A5012C08BB38F708BBB8BB3862B8BBB88B3CD
S1130A608F7088BB88B3862B88BB85B38F7085BB9A
S1130A7085B3862B85BB82B38F7082BB82B3682B10
S1130A8062BB08959FBB8EBB6DBBE29AE19AE1996C
S1130A90FECF08959FBB8EBBE09A8DB3089584E486
S1130AA060E041E00E94310284E461E041E00E94A0
S1130AB0310284E462E041E00E94310284E463E0B4
S1130AC041E00E94310284E464E040E00E9431028B
S1130AD084E465E040E00E94310284E466E040E0A2
S1130AE00E94310284E467E040E00E94310284E421
S1130AF064E041E00E94640484E465E041E00E9413
S1130B00640484E466E041E00E94640484E467E0F1
S1130B1041E00E94640408950F931F93CF93DF93E1
S1130B20CDB7DEB760970FB6F894DEBF0FBECDBF6A
S1130B30DE011196E0E6F0E080E101900D92815033
S1130B40E1F700E084E46FEF0E94F50484E4602F91
S1130B5040E00E94C20210E0612F6C5F84E40E94B6
S1130B604D00882361F4E02FF0E0EE0FFF1FEE0F3D
S1130B70FF1FE10FF11DEC0FFD1F818104C01F5FFA
S1130B80143051F70BC060960FB6F894DEBF0FBE59
S1130B90CDBFDF91CF911F910F9108950F5F043066
S1130BA089F68FEFF0CF82E460E041E00E94C20258
S1130BB08FE99FE00197F1F700C0000082E460E054
S1130BC040E00E94C2028FE99FE00197F1F700C064
S1130BD000000895CF93C82F682F62956F7081E449
S1130BE00E941B0582E462E040E00E94C2020E946F
S1130BF0D30581E46C2F0E941B0582E462E040E08F
S1130C000E94C2020E94D3058FEC97E00197F1F78E
S1130C1000C00000CF91089581E464E041E00E94A7
S1130C20310281E465E041E00E94310281E466E042
S1130C3041E00E94310281E467E041E00E94310218
S1130C4082E462E041E00E94310282E460E041E03B
S1130C500E94310282E461E041E00E94310282E4B8
S1130C6061E040E00E94C20282E00E94EA058FE156
S1130C709EE40197F1F700C0000088E20E94EA05B3
S1130C808FEC97E00197F1F700C000008EE00E941E
S1130C90EA058FEC97E00197F1F700C0000081E0CE
S1130CA00E94EA058FE19EE40197F1F700C000007D
S1130CB086E00E94EA058FEC97E00197F1F700C007
S1130CC000000895CF93C82F682F62956F7081E458
S1130CD00E941B0582E462E041E00E94C2020E947D
S1130CE0D30581E46C2F0E941B0582E462E041E09D
S1130CF00E94C2020E94D3058FEC97E00197F1F79E
S1130D0000C00000CF910895CF93DF93EC01888158
S1130D10882331F021960E94620689918823D9F7AD
S1130D20DF91CF91089581E00E94EA058FE19EE46E
S1130D300197F1F700C000000895CF93982F9150C8
S1130D40923020F4613110F4662321F480E80E948B
S1130D50EA0509C0813019F4C62FC15804C0823095
S1130D6011F4C62FC1548C2F0E94EA058FEC97E032
S1130D700197F1F700C00000CF91089583E461E08A
S1130D8041E00E94310283E463E041E00E943102C9
S1130D9083E465E041E00E94310282E465E041E0E1
S1130DA00E94310282E467E041E00E9431026C9AC1
S1130DB06898699870986E9A6B986A9883E461E071
S1130DC041E00E94C20283E463E041E00E94C20267
S1130DD008956C986E9A82E466E041E00E943102C4
S1130DE00895CF93C82F862F642F40E00E94C2023B
S1130DF0CFB9779BFECF8FB1CF9108958FB9779BF1
S1130E00FECF8FB108950F931F93CF93DF93EC011F
S1130E10062F142F8881882389F02196602F412F73
S1130E200E94F1068FEF92E5A7E081509040A04028
S1130E30E1F700C000008991882381F7DF91CF9109
S1130E401F910F91089583B7877F83BF83B78F7BEB
S1130E5083BF83B7816083BF83B78D7F83BF83B72D
S1130E60846083BF789489B7816089BF88EC82BF2E
S1130E70089583B7886083BF83B78F7B83BF83B7AD
S1130E80816083BF83B78D7F83BF83B7846083BF53
S1130E90789489B7826089BF8CE98CBF0895BB9A26
S1130EA083B7886083BF83B78F7B83BF83B7816039
S1130EB083BF83B78D7F83BF83B7846083BF8CE98F
S1130EC08CBF83B7806183BF0895BB9A83B7886062
S1130ED083BF83B7806483BF83B7816083BF83B7D5
S1130EE08D7F83BF83B7846083BF80EC8CBF83B75F
S1130EF0806283BF0895BB9A83B7877F83BF83B71C
S1130F00806483BF83B7816083BF83B78D7F83BFD2
S1130F1083B7846083BF80EC8CBF83B7806283BF58
S1130F20089585B5877F85BD85B58F7B85BD85B5DE
S1130F30846085BD85B58D7F85BD85B5816085BDA2
S1130F4082B5886082BD789489B7806489BF14BCF7
S1130F500895DC01CB01880F991FAA1FBB1F880FBE
S1130F60991FAA1FBB1F9C01AD01220F331F441FF1
S1130F70551F220F331F441F551F60E072E18AE79B
S1130F8090E00E94EC072150304030BD29B9539ABB
S1130F90549A86E880BD08955D9BFECF8CB9089570
S1130FA05F9BFECF8CB10895CF93DF93EC018881D2
S1130FB0882379F021960E94CC078FEF90E7A2E076
S1130FC081509040A040E1F700C00000899188233F
S1130FD091F7DF91CF910895A1E21A2EAA1BBB1BB2
S1130FE0FD010DC0AA1FBB1FEE1FFF1FA217B307F1
S1130FF0E407F50720F0A21BB30BE40BF50B661F07
S1131000771F881F991F1A9469F7609570958095CA
S113101090959B01AC01BD01CF010895F894FFCFD9
S11310203738392F3435362A3132332D41303D2B80
S9030000FC
